{
  "address": "0x617237B506af6d6c98bb8607643dc88E4Ec5a045",
  "abi": [
    {
      "inputs": [],
      "stateMutability": "nonpayable",
      "type": "constructor"
    },
    {
      "inputs": [
        {
          "internalType": "address",
          "name": "_staker",
          "type": "address"
        },
        {
          "internalType": "uint256",
          "name": "_amount",
          "type": "uint256"
        }
      ],
      "name": "AlreadyBorrowed",
      "type": "error"
    },
    {
      "inputs": [
        {
          "internalType": "address",
          "name": "_staker",
          "type": "address"
        },
        {
          "internalType": "uint256",
          "name": "_index",
          "type": "uint256"
        }
      ],
      "name": "AlreadyUnstaked",
      "type": "error"
    },
    {
      "inputs": [
        {
          "internalType": "uint256",
          "name": "_amount",
          "type": "uint256"
        }
      ],
      "name": "InvalidAmount",
      "type": "error"
    },
    {
      "inputs": [
        {
          "internalType": "uint256",
          "name": "_amount",
          "type": "uint256"
        },
        {
          "internalType": "uint32",
          "name": "_lockingPeriodInSeconds",
          "type": "uint32"
        }
      ],
      "name": "InvalidInputs",
      "type": "error"
    },
    {
      "inputs": [
        {
          "internalType": "address",
          "name": "_staker",
          "type": "address"
        }
      ],
      "name": "NotBorrowed",
      "type": "error"
    },
    {
      "inputs": [
        {
          "internalType": "address",
          "name": "_staker",
          "type": "address"
        }
      ],
      "name": "NotUnlocked",
      "type": "error"
    },
    {
      "inputs": [],
      "name": "PoolIsNotActive",
      "type": "error"
    },
    {
      "anonymous": false,
      "inputs": [
        {
          "indexed": false,
          "internalType": "address",
          "name": "previousAdmin",
          "type": "address"
        },
        {
          "indexed": false,
          "internalType": "address",
          "name": "newAdmin",
          "type": "address"
        }
      ],
      "name": "AdminChanged",
      "type": "event"
    },
    {
      "anonymous": false,
      "inputs": [
        {
          "indexed": false,
          "internalType": "address",
          "name": "_oldOwner",
          "type": "address"
        },
        {
          "indexed": false,
          "internalType": "address",
          "name": "_newOwner",
          "type": "address"
        }
      ],
      "name": "AdminTransferred",
      "type": "event"
    },
    {
      "anonymous": false,
      "inputs": [
        {
          "indexed": true,
          "internalType": "address",
          "name": "beacon",
          "type": "address"
        }
      ],
      "name": "BeaconUpgraded",
      "type": "event"
    },
    {
      "anonymous": false,
      "inputs": [
        {
          "indexed": false,
          "internalType": "uint128",
          "name": "_prevAPY",
          "type": "uint128"
        },
        {
          "indexed": false,
          "internalType": "uint128",
          "name": "_newAPY",
          "type": "uint128"
        }
      ],
      "name": "BorrowAPYUpdated",
      "type": "event"
    },
    {
      "anonymous": false,
      "inputs": [
        {
          "indexed": true,
          "internalType": "address",
          "name": "_borrower",
          "type": "address"
        },
        {
          "indexed": false,
          "internalType": "uint256",
          "name": "_amount",
          "type": "uint256"
        },
        {
          "indexed": false,
          "internalType": "uint128",
          "name": "_borrowAPY",
          "type": "uint128"
        },
        {
          "indexed": false,
          "internalType": "uint32",
          "name": "_paymentDue",
          "type": "uint32"
        }
      ],
      "name": "Borrowed",
      "type": "event"
    },
    {
      "anonymous": false,
      "inputs": [
        {
          "indexed": false,
          "internalType": "uint8",
          "name": "version",
          "type": "uint8"
        }
      ],
      "name": "Initialized",
      "type": "event"
    },
    {
      "anonymous": false,
      "inputs": [
        {
          "indexed": false,
          "internalType": "uint64",
          "name": "_prevValue",
          "type": "uint64"
        },
        {
          "indexed": false,
          "internalType": "uint64",
          "name": "_newValue",
          "type": "uint64"
        }
      ],
      "name": "LeverageAllowedUpdated",
      "type": "event"
    },
    {
      "anonymous": false,
      "inputs": [
        {
          "indexed": true,
          "internalType": "address",
          "name": "_borrower",
          "type": "address"
        },
        {
          "components": [
            {
              "internalType": "uint256",
              "name": "totalStaked",
              "type": "uint256"
            },
            {
              "internalType": "uint256",
              "name": "totalBorrowed",
              "type": "uint256"
            },
            {
              "internalType": "uint128",
              "name": "borrowAPY",
              "type": "uint128"
            },
            {
              "internalType": "uint32",
              "name": "borrowTime",
              "type": "uint32"
            },
            {
              "internalType": "uint32",
              "name": "paymentDue",
              "type": "uint32"
            }
          ],
          "indexed": false,
          "internalType": "struct RWALeverage.LeverageInfo",
          "name": "_leverage",
          "type": "tuple"
        },
        {
          "components": [
            {
              "internalType": "address",
              "name": "borrower",
              "type": "address"
            },
            {
              "internalType": "uint256",
              "name": "totalStaked",
              "type": "uint256"
            },
            {
              "internalType": "uint256",
              "name": "totalBorrowed",
              "type": "uint256"
            },
            {
              "internalType": "uint128",
              "name": "borrowAPY",
              "type": "uint128"
            },
            {
              "internalType": "uint32",
              "name": "borrowTime",
              "type": "uint32"
            },
            {
              "internalType": "uint32",
              "name": "paymentDue",
              "type": "uint32"
            }
          ],
          "indexed": false,
          "internalType": "struct RWALeverage.LiquidateInfo",
          "name": "_liquidate",
          "type": "tuple"
        }
      ],
      "name": "Liquidated",
      "type": "event"
    },
    {
      "anonymous": false,
      "inputs": [
        {
          "indexed": false,
          "internalType": "address",
          "name": "_account",
          "type": "address"
        }
      ],
      "name": "LiquidityManagerAdded",
      "type": "event"
    },
    {
      "anonymous": false,
      "inputs": [
        {
          "indexed": false,
          "internalType": "address",
          "name": "_account",
          "type": "address"
        }
      ],
      "name": "LiquidityManagerRemoved",
      "type": "event"
    },
    {
      "anonymous": false,
      "inputs": [
        {
          "indexed": false,
          "internalType": "uint32",
          "name": "_min",
          "type": "uint32"
        },
        {
          "indexed": false,
          "internalType": "uint32",
          "name": "_max",
          "type": "uint32"
        },
        {
          "indexed": false,
          "internalType": "uint32",
          "name": "_newMin",
          "type": "uint32"
        },
        {
          "indexed": false,
          "internalType": "uint32",
          "name": "_newMax",
          "type": "uint32"
        }
      ],
      "name": "MinMaxStakeDurationUpdated",
      "type": "event"
    },
    {
      "anonymous": false,
      "inputs": [
        {
          "indexed": true,
          "internalType": "address",
          "name": "_borrower",
          "type": "address"
        },
        {
          "indexed": false,
          "internalType": "uint256",
          "name": "_amount",
          "type": "uint256"
        },
        {
          "indexed": false,
          "internalType": "uint128",
          "name": "_borrowAPY",
          "type": "uint128"
        },
        {
          "indexed": false,
          "internalType": "uint32",
          "name": "_borrowTime",
          "type": "uint32"
        }
      ],
      "name": "Paid",
      "type": "event"
    },
    {
      "anonymous": false,
      "inputs": [
        {
          "indexed": false,
          "internalType": "uint64",
          "name": "_prevValue",
          "type": "uint64"
        },
        {
          "indexed": false,
          "internalType": "uint64",
          "name": "_newValue",
          "type": "uint64"
        }
      ],
      "name": "PenaltyAPYUpdated",
      "type": "event"
    },
    {
      "anonymous": false,
      "inputs": [
        {
          "indexed": false,
          "internalType": "enum RWALeverage.PoolStatus",
          "name": "_prevStatus",
          "type": "uint8"
        },
        {
          "indexed": false,
          "internalType": "enum RWALeverage.PoolStatus",
          "name": "_newStatus",
          "type": "uint8"
        }
      ],
      "name": "PoolStatusUpdated",
      "type": "event"
    },
    {
      "anonymous": false,
      "inputs": [
        {
          "indexed": true,
          "internalType": "bytes32",
          "name": "role",
          "type": "bytes32"
        },
        {
          "indexed": true,
          "internalType": "bytes32",
          "name": "previousAdminRole",
          "type": "bytes32"
        },
        {
          "indexed": true,
          "internalType": "bytes32",
          "name": "newAdminRole",
          "type": "bytes32"
        }
      ],
      "name": "RoleAdminChanged",
      "type": "event"
    },
    {
      "anonymous": false,
      "inputs": [
        {
          "indexed": true,
          "internalType": "bytes32",
          "name": "role",
          "type": "bytes32"
        },
        {
          "indexed": true,
          "internalType": "address",
          "name": "account",
          "type": "address"
        },
        {
          "indexed": true,
          "internalType": "address",
          "name": "sender",
          "type": "address"
        }
      ],
      "name": "RoleGranted",
      "type": "event"
    },
    {
      "anonymous": false,
      "inputs": [
        {
          "indexed": true,
          "internalType": "bytes32",
          "name": "role",
          "type": "bytes32"
        },
        {
          "indexed": true,
          "internalType": "address",
          "name": "account",
          "type": "address"
        },
        {
          "indexed": true,
          "internalType": "address",
          "name": "sender",
          "type": "address"
        }
      ],
      "name": "RoleRevoked",
      "type": "event"
    },
    {
      "anonymous": false,
      "inputs": [
        {
          "indexed": false,
          "internalType": "uint32",
          "name": "_prevValue",
          "type": "uint32"
        },
        {
          "indexed": false,
          "internalType": "uint256",
          "name": "_newValue",
          "type": "uint256"
        }
      ],
      "name": "SlicePeriodUpdated",
      "type": "event"
    },
    {
      "anonymous": false,
      "inputs": [
        {
          "indexed": true,
          "internalType": "address",
          "name": "_staker",
          "type": "address"
        },
        {
          "indexed": false,
          "internalType": "uint256",
          "name": "_amount",
          "type": "uint256"
        },
        {
          "indexed": false,
          "internalType": "uint256",
          "name": "_index",
          "type": "uint256"
        }
      ],
      "name": "Staked",
      "type": "event"
    },
    {
      "anonymous": false,
      "inputs": [
        {
          "indexed": true,
          "internalType": "address",
          "name": "_staker",
          "type": "address"
        },
        {
          "indexed": false,
          "internalType": "uint256",
          "name": "_amount",
          "type": "uint256"
        },
        {
          "indexed": false,
          "internalType": "uint256",
          "name": "_index",
          "type": "uint256"
        }
      ],
      "name": "Unstaked",
      "type": "event"
    },
    {
      "anonymous": false,
      "inputs": [
        {
          "indexed": true,
          "internalType": "address",
          "name": "implementation",
          "type": "address"
        }
      ],
      "name": "Upgraded",
      "type": "event"
    },
    {
      "anonymous": false,
      "inputs": [
        {
          "indexed": true,
          "internalType": "address",
          "name": "_to",
          "type": "address"
        },
        {
          "indexed": false,
          "internalType": "uint256",
          "name": "_amount",
          "type": "uint256"
        }
      ],
      "name": "Withdrawn",
      "type": "event"
    },
    {
      "inputs": [],
      "name": "DEFAULT_ADMIN_ROLE",
      "outputs": [
        {
          "internalType": "bytes32",
          "name": "",
          "type": "bytes32"
        }
      ],
      "stateMutability": "view",
      "type": "function"
    },
    {
      "inputs": [],
      "name": "ROLE_LIQUIDITY_MANAGER",
      "outputs": [
        {
          "internalType": "bytes32",
          "name": "",
          "type": "bytes32"
        }
      ],
      "stateMutability": "view",
      "type": "function"
    },
    {
      "inputs": [
        {
          "internalType": "address",
          "name": "_account",
          "type": "address"
        }
      ],
      "name": "addLiquidityManager",
      "outputs": [],
      "stateMutability": "nonpayable",
      "type": "function"
    },
    {
      "inputs": [
        {
          "internalType": "address",
          "name": "_staker",
          "type": "address"
        }
      ],
      "name": "allStakes",
      "outputs": [
        {
          "components": [
            {
              "internalType": "uint256",
              "name": "amount",
              "type": "uint256"
            },
            {
              "internalType": "uint32",
              "name": "lockTime",
              "type": "uint32"
            },
            {
              "internalType": "uint32",
              "name": "unlockTime",
              "type": "uint32"
            },
            {
              "internalType": "bool",
              "name": "isUnstaked",
              "type": "bool"
            }
          ],
          "internalType": "struct RWALeverage.StakeInfo[]",
          "name": "",
          "type": "tuple[]"
        }
      ],
      "stateMutability": "view",
      "type": "function"
    },
    {
      "inputs": [
        {
          "internalType": "uint256",
          "name": "_amount",
          "type": "uint256"
        },
        {
          "internalType": "uint32",
          "name": "_borrowPeriod",
          "type": "uint32"
        }
      ],
      "name": "borrow",
      "outputs": [],
      "stateMutability": "nonpayable",
      "type": "function"
    },
    {
      "inputs": [],
      "name": "borrowAPY",
      "outputs": [
        {
          "internalType": "uint128",
          "name": "",
          "type": "uint128"
        }
      ],
      "stateMutability": "view",
      "type": "function"
    },
    {
      "inputs": [
        {
          "internalType": "bytes32",
          "name": "role",
          "type": "bytes32"
        }
      ],
      "name": "getRoleAdmin",
      "outputs": [
        {
          "internalType": "bytes32",
          "name": "",
          "type": "bytes32"
        }
      ],
      "stateMutability": "view",
      "type": "function"
    },
    {
      "inputs": [
        {
          "internalType": "bytes32",
          "name": "role",
          "type": "bytes32"
        },
        {
          "internalType": "address",
          "name": "_account",
          "type": "address"
        }
      ],
      "name": "grantRole",
      "outputs": [],
      "stateMutability": "nonpayable",
      "type": "function"
    },
    {
      "inputs": [
        {
          "internalType": "bytes32",
          "name": "role",
          "type": "bytes32"
        },
        {
          "internalType": "address",
          "name": "account",
          "type": "address"
        }
      ],
      "name": "hasRole",
      "outputs": [
        {
          "internalType": "bool",
          "name": "",
          "type": "bool"
        }
      ],
      "stateMutability": "view",
      "type": "function"
    },
    {
      "inputs": [
        {
          "internalType": "address",
          "name": "_admin",
          "type": "address"
        },
        {
          "internalType": "address",
          "name": "_rwaToken",
          "type": "address"
        },
        {
          "internalType": "address",
          "name": "_liquidityManager",
          "type": "address"
        }
      ],
      "name": "initialize",
      "outputs": [],
      "stateMutability": "nonpayable",
      "type": "function"
    },
    {
      "inputs": [
        {
          "internalType": "address",
          "name": "_account",
          "type": "address"
        }
      ],
      "name": "isLiquidityManager",
      "outputs": [
        {
          "internalType": "bool",
          "name": "",
          "type": "bool"
        }
      ],
      "stateMutability": "view",
      "type": "function"
    },
    {
      "inputs": [],
      "name": "leverageAllowed",
      "outputs": [
        {
          "internalType": "uint64",
          "name": "",
          "type": "uint64"
        }
      ],
      "stateMutability": "view",
      "type": "function"
    },
    {
      "inputs": [
        {
          "internalType": "address",
          "name": "",
          "type": "address"
        }
      ],
      "name": "leverages",
      "outputs": [
        {
          "internalType": "uint256",
          "name": "totalStaked",
          "type": "uint256"
        },
        {
          "internalType": "uint256",
          "name": "totalBorrowed",
          "type": "uint256"
        },
        {
          "internalType": "uint128",
          "name": "borrowAPY",
          "type": "uint128"
        },
        {
          "internalType": "uint32",
          "name": "borrowTime",
          "type": "uint32"
        },
        {
          "internalType": "uint32",
          "name": "paymentDue",
          "type": "uint32"
        }
      ],
      "stateMutability": "view",
      "type": "function"
    },
    {
      "inputs": [
        {
          "components": [
            {
              "internalType": "address",
              "name": "borrower",
              "type": "address"
            },
            {
              "internalType": "uint256",
              "name": "totalStaked",
              "type": "uint256"
            },
            {
              "internalType": "uint256",
              "name": "totalBorrowed",
              "type": "uint256"
            },
            {
              "internalType": "uint128",
              "name": "borrowAPY",
              "type": "uint128"
            },
            {
              "internalType": "uint32",
              "name": "borrowTime",
              "type": "uint32"
            },
            {
              "internalType": "uint32",
              "name": "paymentDue",
              "type": "uint32"
            }
          ],
          "internalType": "struct RWALeverage.LiquidateInfo[]",
          "name": "_liquidate",
          "type": "tuple[]"
        }
      ],
      "name": "liquidate",
      "outputs": [],
      "stateMutability": "nonpayable",
      "type": "function"
    },
    {
      "inputs": [],
      "name": "maxStakeDurationAllowed",
      "outputs": [
        {
          "internalType": "uint32",
          "name": "",
          "type": "uint32"
        }
      ],
      "stateMutability": "view",
      "type": "function"
    },
    {
      "inputs": [],
      "name": "minStakeDurationAllowed",
      "outputs": [
        {
          "internalType": "uint32",
          "name": "",
          "type": "uint32"
        }
      ],
      "stateMutability": "view",
      "type": "function"
    },
    {
      "inputs": [
        {
          "internalType": "address",
          "name": "_staker",
          "type": "address"
        }
      ],
      "name": "numberOfStakes",
      "outputs": [
        {
          "internalType": "uint256",
          "name": "",
          "type": "uint256"
        }
      ],
      "stateMutability": "view",
      "type": "function"
    },
    {
      "inputs": [],
      "name": "pay",
      "outputs": [],
      "stateMutability": "nonpayable",
      "type": "function"
    },
    {
      "inputs": [],
      "name": "penaltyAPY",
      "outputs": [
        {
          "internalType": "uint64",
          "name": "",
          "type": "uint64"
        }
      ],
      "stateMutability": "view",
      "type": "function"
    },
    {
      "inputs": [],
      "name": "proxiableUUID",
      "outputs": [
        {
          "internalType": "bytes32",
          "name": "",
          "type": "bytes32"
        }
      ],
      "stateMutability": "view",
      "type": "function"
    },
    {
      "inputs": [
        {
          "internalType": "address",
          "name": "_account",
          "type": "address"
        }
      ],
      "name": "removeLiquidityManager",
      "outputs": [],
      "stateMutability": "nonpayable",
      "type": "function"
    },
    {
      "inputs": [
        {
          "internalType": "bytes32",
          "name": "role",
          "type": "bytes32"
        },
        {
          "internalType": "address",
          "name": "account",
          "type": "address"
        }
      ],
      "name": "renounceRole",
      "outputs": [],
      "stateMutability": "nonpayable",
      "type": "function"
    },
    {
      "inputs": [
        {
          "internalType": "bytes32",
          "name": "role",
          "type": "bytes32"
        },
        {
          "internalType": "address",
          "name": "_account",
          "type": "address"
        }
      ],
      "name": "revokeRole",
      "outputs": [],
      "stateMutability": "nonpayable",
      "type": "function"
    },
    {
      "inputs": [],
      "name": "rwaToken",
      "outputs": [
        {
          "internalType": "address",
          "name": "",
          "type": "address"
        }
      ],
      "stateMutability": "view",
      "type": "function"
    },
    {
      "inputs": [],
      "name": "slice",
      "outputs": [
        {
          "internalType": "uint32",
          "name": "",
          "type": "uint32"
        }
      ],
      "stateMutability": "view",
      "type": "function"
    },
    {
      "inputs": [
        {
          "internalType": "uint256",
          "name": "_amount",
          "type": "uint256"
        },
        {
          "internalType": "uint32",
          "name": "_lockingPeriodInSeconds",
          "type": "uint32"
        }
      ],
      "name": "stake",
      "outputs": [],
      "stateMutability": "nonpayable",
      "type": "function"
    },
    {
      "inputs": [
        {
          "internalType": "address",
          "name": "",
          "type": "address"
        },
        {
          "internalType": "uint256",
          "name": "",
          "type": "uint256"
        }
      ],
      "name": "stakes",
      "outputs": [
        {
          "internalType": "uint256",
          "name": "amount",
          "type": "uint256"
        },
        {
          "internalType": "uint32",
          "name": "lockTime",
          "type": "uint32"
        },
        {
          "internalType": "uint32",
          "name": "unlockTime",
          "type": "uint32"
        },
        {
          "internalType": "bool",
          "name": "isUnstaked",
          "type": "bool"
        }
      ],
      "stateMutability": "view",
      "type": "function"
    },
    {
      "inputs": [],
      "name": "status",
      "outputs": [
        {
          "internalType": "enum RWALeverage.PoolStatus",
          "name": "",
          "type": "uint8"
        }
      ],
      "stateMutability": "view",
      "type": "function"
    },
    {
      "inputs": [
        {
          "internalType": "bytes4",
          "name": "interfaceId",
          "type": "bytes4"
        }
      ],
      "name": "supportsInterface",
      "outputs": [
        {
          "internalType": "bool",
          "name": "",
          "type": "bool"
        }
      ],
      "stateMutability": "view",
      "type": "function"
    },
    {
      "inputs": [
        {
          "internalType": "address",
          "name": "_newOwner",
          "type": "address"
        }
      ],
      "name": "transferAdmin",
      "outputs": [],
      "stateMutability": "nonpayable",
      "type": "function"
    },
    {
      "inputs": [
        {
          "internalType": "uint256",
          "name": "_index",
          "type": "uint256"
        }
      ],
      "name": "unStake",
      "outputs": [],
      "stateMutability": "nonpayable",
      "type": "function"
    },
    {
      "inputs": [
        {
          "internalType": "uint128",
          "name": "_borrowAPY",
          "type": "uint128"
        }
      ],
      "name": "updateBorrowAPY",
      "outputs": [],
      "stateMutability": "nonpayable",
      "type": "function"
    },
    {
      "inputs": [
        {
          "internalType": "uint64",
          "name": "_leverageAllowed",
          "type": "uint64"
        }
      ],
      "name": "updateLeverageAllowed",
      "outputs": [],
      "stateMutability": "nonpayable",
      "type": "function"
    },
    {
      "inputs": [
        {
          "internalType": "uint32",
          "name": "_min",
          "type": "uint32"
        },
        {
          "internalType": "uint32",
          "name": "_max",
          "type": "uint32"
        }
      ],
      "name": "updateMinMaxDurationAllowed",
      "outputs": [],
      "stateMutability": "nonpayable",
      "type": "function"
    },
    {
      "inputs": [
        {
          "internalType": "uint64",
          "name": "_penaltyAPY",
          "type": "uint64"
        }
      ],
      "name": "updatePenaltyAPY",
      "outputs": [],
      "stateMutability": "nonpayable",
      "type": "function"
    },
    {
      "inputs": [
        {
          "internalType": "enum RWALeverage.PoolStatus",
          "name": "_status",
          "type": "uint8"
        }
      ],
      "name": "updatePoolStatus",
      "outputs": [],
      "stateMutability": "nonpayable",
      "type": "function"
    },
    {
      "inputs": [
        {
          "internalType": "uint32",
          "name": "_slice",
          "type": "uint32"
        }
      ],
      "name": "updateSlicePeriod",
      "outputs": [],
      "stateMutability": "nonpayable",
      "type": "function"
    },
    {
      "inputs": [
        {
          "internalType": "address",
          "name": "newImplementation",
          "type": "address"
        }
      ],
      "name": "upgradeTo",
      "outputs": [],
      "stateMutability": "nonpayable",
      "type": "function"
    },
    {
      "inputs": [
        {
          "internalType": "address",
          "name": "newImplementation",
          "type": "address"
        },
        {
          "internalType": "bytes",
          "name": "data",
          "type": "bytes"
        }
      ],
      "name": "upgradeToAndCall",
      "outputs": [],
      "stateMutability": "payable",
      "type": "function"
    },
    {
      "inputs": [
        {
          "internalType": "uint256",
          "name": "_amount",
          "type": "uint256"
        }
      ],
      "name": "withdraw",
      "outputs": [],
      "stateMutability": "nonpayable",
      "type": "function"
    }
  ],
  "transactionHash": "0x09a7ebe85c0463c6f13afeee1be9e2a36088d86728a2168d308bb02fe4ab0e2b",
  "args": [],
  "numDeployments": 1,
  "solcInputHash": "bf0625331bce5455fac474ec9e940e9f",
  "bytecode": "0x60a0604052306080523480156200001557600080fd5b506200002062000026565b620000e7565b600054610100900460ff1615620000935760405162461bcd60e51b815260206004820152602760248201527f496e697469616c697a61626c653a20636f6e747261637420697320696e697469604482015266616c697a696e6760c81b606482015260840160405180910390fd5b60005460ff90811614620000e5576000805460ff191660ff9081179091556040519081527f7f26b83ff96e1f2b6a682f133852f6798a09c465da95921460cefb38474024989060200160405180910390a15b565b6080516134896200011f60003960008181611181015281816111c10152818161136d015281816113ad015261143c01526134896000f3fe60806040526004361061023b5760003560e01c80635d3eea911161012e578063aaad046c116100ab578063d2551f1c1161006f578063d2551f1c146107dd578063d547741f146107fd578063df7054e51461081d578063df89b3441461083d578063dfef66791461085d57600080fd5b8063aaad046c14610716578063c01d099914610738578063c0c53b8b14610765578063ca1dcc7e14610785578063cabca643146107a557600080fd5b80638a5a0caa116100f25780638a5a0caa1461067a5780638d7d4828146106a15780638fece317146106c157806391d14854146106e1578063a217fddf1461070157600080fd5b80635d3eea911461055c57806375829def1461057c57806378a96cc01461059c5780637f371624146105bc5780638a495740146105e057600080fd5b80632e1a7d4d116101bc578063460316201161018057806346031620146104a15780634ca7fcf2146104c15780634f1ef286146104e557806352d1902d146104f8578063584b62a11461050d57600080fd5b80632e1a7d4d146104015780632f2ff15d1461042157806336568abe146104415780633659cfe6146104615780633944d8bf1461048157600080fd5b80631b9265b8116102035780631b9265b81461030f578063200d2ed214610324578063248a9ca31461034b57806326047c5914610389578063288e284b146103c857600080fd5b806301ffc9a714610240578063037cf965146102755780630c5bf3511461029757806313b9cc72146102cf57806318ee3edc146102ef575b600080fd5b34801561024c57600080fd5b5061026061025b366004612b9d565b610893565b60405190151581526020015b60405180910390f35b34801561028157600080fd5b50610295610290366004612bc7565b6108ca565b005b3480156102a357600080fd5b5060fb546102b7906001600160a01b031681565b6040516001600160a01b03909116815260200161026c565b3480156102db57600080fd5b506102956102ea366004612bf0565b61094c565b3480156102fb57600080fd5b5061029561030a366004612c11565b6109c0565b34801561031b57600080fd5b50610295610c5e565b34801561033057600080fd5b5060fd5461033e9060ff1681565b60405161026c9190612cbd565b34801561035757600080fd5b5061037b610366366004612ccb565b60009081526065602052604090206001015490565b60405190815260200161026c565b34801561039557600080fd5b5060fc546103b090600160801b90046001600160401b031681565b6040516001600160401b03909116815260200161026c565b3480156103d457600080fd5b5060fb546103ec90600160c01b900463ffffffff1681565b60405163ffffffff909116815260200161026c565b34801561040d57600080fd5b5061029561041c366004612ccb565b610f41565b34801561042d57600080fd5b5061029561043c366004612cf9565b6110ac565b34801561044d57600080fd5b5061029561045c366004612cf9565b6110f8565b34801561046d57600080fd5b5061029561047c366004612d29565b611176565b34801561048d57600080fd5b5061029561049c366004612d29565b611256565b3480156104ad57600080fd5b506102956104bc366004612d5f565b6112ba565b3480156104cd57600080fd5b5060fb546103ec90600160e01b900463ffffffff1681565b6102956104f3366004612da8565b611362565b34801561050457600080fd5b5061037b61142f565b34801561051957600080fd5b5061052d610528366004612e6b565b6114e2565b60405161026c949392919093845263ffffffff9283166020850152911660408301521515606082015260800190565b34801561056857600080fd5b50610295610577366004612ccb565b61153a565b34801561058857600080fd5b50610295610597366004612d29565b61178b565b3480156105a857600080fd5b506102956105b7366004612e97565b6117e8565b3480156105c857600080fd5b5060fb546103ec90600160a01b900463ffffffff1681565b3480156105ec57600080fd5b5061063e6105fb366004612d29565b60ff602052600090815260409020805460018201546002909201549091906001600160801b0381169063ffffffff600160801b8204811691600160a01b90041685565b6040805195865260208601949094526001600160801b039092169284019290925263ffffffff918216606084015216608082015260a00161026c565b34801561068657600080fd5b5060fc546103b090600160c01b90046001600160401b031681565b3480156106ad57600080fd5b506102956106bc366004612ed1565b6119e6565b3480156106cd57600080fd5b506102956106dc366004612e97565b611a64565b3480156106ed57600080fd5b506102606106fc366004612cf9565b611dae565b34801561070d57600080fd5b5061037b600081565b34801561072257600080fd5b5061037b60008051602061343483398151915281565b34801561074457600080fd5b50610758610753366004612d29565b611dd9565b60405161026c9190612eec565b34801561077157600080fd5b50610295610780366004612f5b565b611e85565b34801561079157600080fd5b506102956107a0366004612bc7565b612041565b3480156107b157600080fd5b5060fc546107c5906001600160801b031681565b6040516001600160801b03909116815260200161026c565b3480156107e957600080fd5b506102956107f8366004612d29565b6120c8565b34801561080957600080fd5b50610295610818366004612cf9565b612124565b34801561082957600080fd5b50610295610838366004612fa6565b612170565b34801561084957600080fd5b50610260610858366004612d29565b6121ed565b34801561086957600080fd5b5061037b610878366004612d29565b6001600160a01b0316600090815260fe602052604090205490565b60006001600160e01b03198216637965db0b60e01b14806108c457506301ffc9a760e01b6001600160e01b03198316145b92915050565b60006108d581612207565b60fc54604080516001600160401b03600160c01b9093048316815291841660208301527f9b9459a402561ae03e196d64f242998d8df6e6886e44cdd3663bd3a1c5f727c6910160405180910390a15060fc80546001600160401b03909216600160c01b026001600160c01b03909216919091179055565b600061095781612207565b60fd546040517fbdbabe6c44fbdbeac28bc3ae9eb1acc2d06c4a5f916867e42aeb583558f9a115916109909160ff909116908590612fc1565b60405180910390a160fd805483919060ff191660018360028111156109b7576109b7612c85565b02179055505050565b6000805160206134348339815191526109d881612207565b60005b82811015610c58578383828181106109f5576109f5612fdc565b610a0b92602060c0909202019081019150612d29565b6001600160a01b03167f598f4701add317b9349956ff4eb309235a6f01efb81a0689e938b45ccfa9386360ff6000878786818110610a4b57610a4b612fdc565b610a6192602060c0909202019081019150612d29565b6001600160a01b03166001600160a01b03168152602001908152602001600020868685818110610a9357610a93612fdc565b905060c00201604051610aa7929190612ff2565b60405180910390a26040518060a00160405280858584818110610acc57610acc612fdc565b905060c00201602001358152602001858584818110610aed57610aed612fdc565b905060c00201604001358152602001858584818110610b0e57610b0e612fdc565b905060c002016060016020810190610b269190612ed1565b6001600160801b03168152602001858584818110610b4657610b46612fdc565b905060c002016080016020810190610b5e9190612fa6565b63ffffffff168152602001858584818110610b7b57610b7b612fdc565b905060c0020160a0016020810190610b939190612fa6565b63ffffffff16905260ff6000868685818110610bb157610bb1612fdc565b610bc792602060c0909202019081019150612d29565b6001600160a01b031681526020808201929092526040908101600020835181559183015160018301558201516002909101805460608401516080909401516001600160801b039093166001600160a01b031990911617600160801b63ffffffff948516021763ffffffff60a01b1916600160a01b939092169290920217905580610c50816130c5565b9150506109db565b50505050565b600160fd5460ff166002811115610c7757610c77612c85565b14610c9557604051632b5b3f3760e11b815260040160405180910390fd5b33600090815260ff6020908152604091829020825160a0810184528154815260018201549281018390526002909101546001600160801b0381169382019390935263ffffffff600160801b840481166060830152600160a01b9093049092166080830152610d1d5760405163026a2a0b60e41b81523360048201526024015b60405180910390fd5b6000816080015163ffffffff164211610d3a578160400151610d5c565b60fc546040830151610d5c91600160c01b90046001600160401b0316906130e0565b6001600160801b03169050600064486b6dc000836060015163ffffffff1642610d85919061310b565b838560200151610d959190613122565b610d9f9190613122565b610da99190613157565b8360200151610db8919061316b565b9050610e5660fb60009054906101000a90046001600160a01b03166001600160a01b03166338d52e0f6040518163ffffffff1660e01b815260040160206040518083038186803b158015610e0b57600080fd5b505afa158015610e1f573d6000803e3d6000fd5b505050506040513d601f19601f82011682018060405250810190610e439190613183565b3360fb546001600160a01b031684612211565b6040805160a08101825284518152600060208083018281528385018381526060808601858152608087018681523380885260ff87529689902097518855935160018801559151600290960180549251935163ffffffff908116600160a01b0263ffffffff60a01b19958216600160801b026001600160a01b03199095166001600160801b03998a161794909417949094169290921790915588860151818a015187518981529190961693810193909352931693810193909352917f5ac9c41f99d0a3f1717270c3b4a74646d56c622abc6bdd27f5171535e6d6a0ec91015b60405180910390a2505050565b600080516020613434833981519152610f5981612207565b60fb54604080516361d027b360e01b81529051610fe0926001600160a01b03169182916361d027b391600480820192602092909190829003018186803b158015610fa257600080fd5b505afa158015610fb6573d6000803e3d6000fd5b505050506040513d601f19601f82011682018060405250810190610fda9190613183565b8461227c565b60fb60009054906101000a90046001600160a01b03166001600160a01b03166361d027b36040518163ffffffff1660e01b815260040160206040518083038186803b15801561102e57600080fd5b505afa158015611042573d6000803e3d6000fd5b505050506040513d601f19601f820116820180604052508101906110669190613183565b6001600160a01b03167f7084f5476618d8e60b11ef0d7d3f06914655adb8793e28ff7f018d4c76d505d5836040516110a091815260200190565b60405180910390a25050565b6000828152606560205260409020600101546110c781612207565b816001600160a01b0381166110ee5760405162461bcd60e51b8152600401610d14906131a0565b610c5884846122b1565b6001600160a01b03811633146111685760405162461bcd60e51b815260206004820152602f60248201527f416363657373436f6e74726f6c3a2063616e206f6e6c792072656e6f756e636560448201526e103937b632b9903337b91039b2b63360891b6064820152608401610d14565b6111728282612337565b5050565b306001600160a01b037f00000000000000000000000000000000000000000000000000000000000000001614156111bf5760405162461bcd60e51b8152600401610d14906131d0565b7f00000000000000000000000000000000000000000000000000000000000000006001600160a01b03166112086000805160206133ed833981519152546001600160a01b031690565b6001600160a01b03161461122e5760405162461bcd60e51b8152600401610d149061321c565b6112378161239e565b60408051600080825260208201909252611253918391906123a9565b50565b600061126181612207565b61127960008051602061343483398151915283612124565b6040516001600160a01b03831681527f71e79bc051c8df32d78c919fdf1a6af7999c8ee1998debe70825f11a097ed982906020015b60405180910390a15050565b60006112c581612207565b60fb5460408051600160e01b830463ffffffff9081168252600160c01b90930483166020820152858316818301529184166060830152517f36fe4abc4a7c412360cb66ed7e9620d3224178530b66fc597e4b04f1f00749459181900360800190a15060fb80546001600160c01b0316600160e01b63ffffffff9485160263ffffffff60c01b191617600160c01b9290931691909102919091179055565b306001600160a01b037f00000000000000000000000000000000000000000000000000000000000000001614156113ab5760405162461bcd60e51b8152600401610d14906131d0565b7f00000000000000000000000000000000000000000000000000000000000000006001600160a01b03166113f46000805160206133ed833981519152546001600160a01b031690565b6001600160a01b03161461141a5760405162461bcd60e51b8152600401610d149061321c565b6114238261239e565b611172828260016123a9565b6000306001600160a01b037f000000000000000000000000000000000000000000000000000000000000000016146114cf5760405162461bcd60e51b815260206004820152603860248201527f555550535570677261646561626c653a206d757374206e6f742062652063616c60448201527f6c6564207468726f7567682064656c656761746563616c6c00000000000000006064820152608401610d14565b506000805160206133ed83398151915290565b60fe60205281600052604060002081815481106114fe57600080fd5b60009182526020909120600290910201805460019091015490925063ffffffff808216925064010000000082041690600160401b900460ff1684565b600160fd5460ff16600281111561155357611553612c85565b1461157157604051632b5b3f3760e11b815260040160405180910390fd5b33600090815260fe6020526040812080548390811061159257611592612fdc565b60009182526020808320604080516080810182526002909402909101805484526001015463ffffffff8082169385019390935264010000000081049092169083015260ff600160401b909104811615156060830152909250816115f23390565b6001600160a01b031681526020808201929092526040908101600020815160a08101835281548152600182015493810193909352600201546001600160801b0381169183019190915263ffffffff600160801b82048116606080850191909152600160a01b9092041660808301528301519091501561168d5760405163996a0c9360e01b815233600482015260248101849052604401610d14565b816040015163ffffffff164210156116ba57604051632c7e417360e11b8152336004820152602401610d14565b602081015160fc548251612710916116e391600160801b9091046001600160401b031690613122565b6116ed9190613157565b6116f7919061310b565b8251111561171e578151604051633728b83d60e01b81526004810191909152602401610d14565b6001606083015281518151829061173690839061310b565b90525060fb54611751906001600160a01b031633845161227c565b8151604080519182526020820185905233917f7fc4727e062e336010f2c282598ef5f14facb3de68cf8195c2f23e1454b2b74e9101610f34565b6117966000826110ac565b6117a1600033612124565b7ff8ccb027dfcd135e000e9d45e6cc2d662578a8825d4c45b5e32e0adf67e79ec633604080516001600160a01b03928316815291841660208301520160405180910390a150565b811580611813575060fb5461180a90600160a01b900463ffffffff1682613268565b63ffffffff1615155b80611830575060fb5463ffffffff600160e01b9091048116908216105b8061184d575060fb5463ffffffff600160c01b9091048116908216115b1561187a57604051631c8fcedb60e31b81526004810183905263ffffffff82166024820152604401610d14565b600160fd5460ff16600281111561189357611893612c85565b146118b157604051632b5b3f3760e11b815260040160405180910390fd5b60fb546118c9906001600160a01b0316333085612211565b60006118d5824261328b565b33600081815260fe602090815260409182902054825188815291820152815193945091927f1449c6dd7851abc30abf37f57715f492010519147cc2652fbc38202c18a6ee909281900390910190a233600081815260fe6020908152604080832081516080810183528881524263ffffffff90811682860190815288821683860190815260608401888152855460018082018855968a52888a209551600290910290950194855591519390940180549451915193831667ffffffffffffffff199095169490941764010000000091909216021768ff00000000000000001916600160401b9115159190910217905592825260ff905290812080548592906119dc90849061316b565b9091555050505050565b60006119f181612207565b60fc54604080516001600160801b03928316815291841660208301527f81ef0bd8ac18ebe0e7c219bb2b40954cd2be50e4448e9b8be417b678a922112c910160405180910390a15060fc80546fffffffffffffffffffffffffffffffff19166001600160801b0392909216919091179055565b600160fd5460ff166002811115611a7d57611a7d612c85565b14611a9b57604051632b5b3f3760e11b815260040160405180910390fd5b33600090815260ff6020908152604091829020825160a0810184528154815260018201549281018390526002909101546001600160801b0381169382019390935263ffffffff600160801b840481166060830152600160a01b909304909216608083015215611b2c5760208101516040516308e99bf560e11b81523360048201526024810191909152604401610d14565b60fb5481516040516303d1689d60e11b815260048101919091526000916001600160a01b0316906307a2d13a9060240160206040518083038186803b158015611b7457600080fd5b505afa158015611b88573d6000803e3d6000fd5b505050506040513d601f19601f82011682018060405250810190611bac91906132aa565b60fc5490915061271090611bd090600160801b90046001600160401b031683613122565b611bda9190613157565b841115611bfd57604051633728b83d60e01b815260048101859052602401610d14565b6000611c09844261328b565b6040805160a081018252855181526020810188905260fc546001600160801b03169181019190915263ffffffff42811660608301528216608082015290915060ff6000611c533390565b6001600160a01b039081168252602080830193909352604091820160002084518155928401516001840155908301516002909201805460608501516080909501516001600160801b039094166001600160a01b031990911617600160801b63ffffffff958616021763ffffffff60a01b1916600160a01b94909316939093029190911790915560fb5416636370920e336040516001600160e01b031960e084901b1681526001600160a01b03909116600482015260248101889052604401600060405180830381600087803b158015611d2b57600080fd5b505af1158015611d3f573d6000803e3d6000fd5b50505050611d4a3390565b60fc54604080518881526001600160801b03909216602083015263ffffffff841682820152516001600160a01b0392909216917ff67cf6a8fed10bca063dcb5647247e309d39de9f66ae8e00fcd17b209a404f969181900360600190a25050505050565b60009182526065602090815260408084206001600160a01b0393909316845291905290205460ff1690565b6001600160a01b038116600090815260fe60209081526040808320805482518185028101850190935280835260609492939192909184015b82821015611e7a57600084815260209081902060408051608081018252600286029092018054835260019081015463ffffffff8082168587015264010000000082041692840192909252600160401b90910460ff16151560608301529083529092019101611e11565b505050509050919050565b600054610100900460ff1615808015611ea55750600054600160ff909116105b80611ebf5750303b158015611ebf575060005460ff166001145b611f225760405162461bcd60e51b815260206004820152602e60248201527f496e697469616c697a61626c653a20636f6e747261637420697320616c72656160448201526d191e481a5b9a5d1a585b1a5e995960921b6064820152608401610d14565b6000805460ff191660011790558015611f45576000805461ff0019166101001790555b826001600160a01b038116611f6c5760405162461bcd60e51b8152600401610d14906131a0565b611f74612523565b611f7c612523565b611f876000866122b1565b611f9f600080516020613434833981519152846122b1565b5060fb80546001600160a01b0385166001600160c01b03199091161761278d60a81b176001600160c01b03166509e3400076a760ca1b1790557901f40000000000001b58000000000000000000000000000004b060fc558015610c58576000805461ff0019169055604051600181527f7f26b83ff96e1f2b6a682f133852f6798a09c465da95921460cefb38474024989060200160405180910390a150505050565b600061204c81612207565b60fc54604080516001600160401b03600160801b9093048316815291841660208301527f5495dd383d56e4785e5363a1d43fffdf15d23827eb9ac2e09fc695eab09e5938910160405180910390a15060fc80546001600160401b03909216600160801b0267ffffffffffffffff60801b19909216919091179055565b60006120d381612207565b6120eb600080516020613434833981519152836110ac565b6040516001600160a01b03831681527f381ac23337d4d996e5996d989ac24f04e7124f6c5bcdd7d4785d67e3d39e422e906020016112ae565b60008281526065602052604090206001015461213f81612207565b816001600160a01b0381166121665760405162461bcd60e51b8152600401610d14906131a0565b610c588484612337565b600061217b81612207565b60fb546040805163ffffffff600160a01b9093048316815291841660208301527ff4dbb631bf80511593a1df974ad0fc0087082b32bafaba9b99d2a13ae51d5159910160405180910390a15060fb805463ffffffff909216600160a01b0263ffffffff60a01b19909216919091179055565b60006108c460008051602061343483398151915283611dae565b6112538133612590565b6040516001600160a01b0380851660248301528316604482015260648101829052610c589085906323b872dd60e01b906084015b60408051601f198184030181529190526020810180516001600160e01b03166001600160e01b0319909316929092179091526125e9565b6040516001600160a01b0383166024820152604481018290526122ac90849063a9059cbb60e01b90606401612245565b505050565b6122bb8282611dae565b6111725760008281526065602090815260408083206001600160a01b03851684529091529020805460ff191660011790556122f33390565b6001600160a01b0316816001600160a01b0316837f2f8788117e7eff1d82e926ec794901d17c78024a50270940304540a733656f0d60405160405180910390a45050565b6123418282611dae565b156111725760008281526065602090815260408083206001600160a01b0385168085529252808320805460ff1916905551339285917ff6391f5c32d9c69d2a47ea670b442974b53935d1edc7fd64eb21e047a839171b9190a45050565b600061117281612207565b7f4910fdfa16fed3260ed0e7147f7cc6da11a60208b5b9406d12a635614ffd91435460ff16156123dc576122ac836126be565b826001600160a01b03166352d1902d6040518163ffffffff1660e01b815260040160206040518083038186803b15801561241557600080fd5b505afa925050508015612445575060408051601f3d908101601f19168201909252612442918101906132aa565b60015b6124a85760405162461bcd60e51b815260206004820152602e60248201527f45524331393637557067726164653a206e657720696d706c656d656e7461746960448201526d6f6e206973206e6f74205555505360901b6064820152608401610d14565b6000805160206133ed83398151915281146125175760405162461bcd60e51b815260206004820152602960248201527f45524331393637557067726164653a20756e737570706f727465642070726f786044820152681a58589b195555525160ba1b6064820152608401610d14565b506122ac83838361275a565b600054610100900460ff1661258e5760405162461bcd60e51b815260206004820152602b60248201527f496e697469616c697a61626c653a20636f6e7472616374206973206e6f74206960448201526a6e697469616c697a696e6760a81b6064820152608401610d14565b565b61259a8282611dae565b611172576125a78161277f565b6125b2836020612791565b6040516020016125c39291906132ef565b60408051601f198184030181529082905262461bcd60e51b8252610d1491600401613364565b600061263e826040518060400160405280602081526020017f5361666545524332303a206c6f772d6c6576656c2063616c6c206661696c6564815250856001600160a01b03166129339092919063ffffffff16565b905080516000148061265f57508080602001905181019061265f9190613397565b6122ac5760405162461bcd60e51b815260206004820152602a60248201527f5361666545524332303a204552433230206f7065726174696f6e20646964206e6044820152691bdd081cdd58d8d9595960b21b6064820152608401610d14565b6001600160a01b0381163b61272b5760405162461bcd60e51b815260206004820152602d60248201527f455243313936373a206e657720696d706c656d656e746174696f6e206973206e60448201526c1bdd08184818dbdb9d1c9858dd609a1b6064820152608401610d14565b6000805160206133ed83398151915280546001600160a01b0319166001600160a01b0392909216919091179055565b6127638361294a565b6000825111806127705750805b156122ac57610c58838361298a565b60606108c46001600160a01b03831660145b606060006127a0836002613122565b6127ab90600261316b565b6001600160401b038111156127c2576127c2612d92565b6040519080825280601f01601f1916602001820160405280156127ec576020820181803683370190505b509050600360fc1b8160008151811061280757612807612fdc565b60200101906001600160f81b031916908160001a905350600f60fb1b8160018151811061283657612836612fdc565b60200101906001600160f81b031916908160001a905350600061285a846002613122565b61286590600161316b565b90505b60018111156128dd576f181899199a1a9b1b9c1cb0b131b232b360811b85600f166010811061289957612899612fdc565b1a60f81b8282815181106128af576128af612fdc565b60200101906001600160f81b031916908160001a90535060049490941c936128d6816133b9565b9050612868565b50831561292c5760405162461bcd60e51b815260206004820181905260248201527f537472696e67733a20686578206c656e67746820696e73756666696369656e746044820152606401610d14565b9392505050565b606061294284846000856129af565b949350505050565b612953816126be565b6040516001600160a01b038216907fbc7cd75a20ee27fd9adebab32041f755214dbc6bffa90cc0225b39da2e5c2d3b90600090a250565b606061292c838360405180606001604052806027815260200161340d60279139612a8a565b606082471015612a105760405162461bcd60e51b815260206004820152602660248201527f416464726573733a20696e73756666696369656e742062616c616e636520666f6044820152651c8818d85b1b60d21b6064820152608401610d14565b600080866001600160a01b03168587604051612a2c91906133d0565b60006040518083038185875af1925050503d8060008114612a69576040519150601f19603f3d011682016040523d82523d6000602084013e612a6e565b606091505b5091509150612a7f87838387612b02565b979650505050505050565b6060600080856001600160a01b031685604051612aa791906133d0565b600060405180830381855af49150503d8060008114612ae2576040519150601f19603f3d011682016040523d82523d6000602084013e612ae7565b606091505b5091509150612af886838387612b02565b9695505050505050565b60608315612b6e578251612b67576001600160a01b0385163b612b675760405162461bcd60e51b815260206004820152601d60248201527f416464726573733a2063616c6c20746f206e6f6e2d636f6e74726163740000006044820152606401610d14565b5081612942565b6129428383815115612b835781518083602001fd5b8060405162461bcd60e51b8152600401610d149190613364565b600060208284031215612baf57600080fd5b81356001600160e01b03198116811461292c57600080fd5b600060208284031215612bd957600080fd5b81356001600160401b038116811461292c57600080fd5b600060208284031215612c0257600080fd5b81356003811061292c57600080fd5b60008060208385031215612c2457600080fd5b82356001600160401b0380821115612c3b57600080fd5b818501915085601f830112612c4f57600080fd5b813581811115612c5e57600080fd5b86602060c083028501011115612c7357600080fd5b60209290920196919550909350505050565b634e487b7160e01b600052602160045260246000fd5b60038110612cb957634e487b7160e01b600052602160045260246000fd5b9052565b602081016108c48284612c9b565b600060208284031215612cdd57600080fd5b5035919050565b6001600160a01b038116811461125357600080fd5b60008060408385031215612d0c57600080fd5b823591506020830135612d1e81612ce4565b809150509250929050565b600060208284031215612d3b57600080fd5b813561292c81612ce4565b803563ffffffff81168114612d5a57600080fd5b919050565b60008060408385031215612d7257600080fd5b612d7b83612d46565b9150612d8960208401612d46565b90509250929050565b634e487b7160e01b600052604160045260246000fd5b60008060408385031215612dbb57600080fd5b8235612dc681612ce4565b915060208301356001600160401b0380821115612de257600080fd5b818501915085601f830112612df657600080fd5b813581811115612e0857612e08612d92565b604051601f8201601f19908116603f01168101908382118183101715612e3057612e30612d92565b81604052828152886020848701011115612e4957600080fd5b8260208601602083013760006020848301015280955050505050509250929050565b60008060408385031215612e7e57600080fd5b8235612e8981612ce4565b946020939093013593505050565b60008060408385031215612eaa57600080fd5b82359150612d8960208401612d46565b80356001600160801b0381168114612d5a57600080fd5b600060208284031215612ee357600080fd5b61292c82612eba565b602080825282518282018190526000919060409081850190868401855b82811015612f4e578151805185528681015163ffffffff9081168887015286820151168686015260609081015115159085015260809093019290850190600101612f09565b5091979650505050505050565b600080600060608486031215612f7057600080fd5b8335612f7b81612ce4565b92506020840135612f8b81612ce4565b91506040840135612f9b81612ce4565b809150509250925092565b600060208284031215612fb857600080fd5b61292c82612d46565b60408101612fcf8285612c9b565b61292c6020830184612c9b565b634e487b7160e01b600052603260045260246000fd5b600061016082019050835482526001840154602083015260028401546001600160801b03808216604085015263ffffffff808360801c166060860152808360a01c1660808601528535925061304683612ce4565b6001600160a01b03831660a0860152602086013560c0860152604086013560e08601528161307660608801612eba565b166101008601528061308a60808801612d46565b166101208601528061309e60a08801612d46565b166101408601525050509392505050565b634e487b7160e01b600052601160045260246000fd5b60006000198214156130d9576130d96130af565b5060010190565b60006001600160801b03808316818516808303821115613102576131026130af565b01949350505050565b60008282101561311d5761311d6130af565b500390565b600081600019048311821515161561313c5761313c6130af565b500290565b634e487b7160e01b600052601260045260246000fd5b60008261316657613166613141565b500490565b6000821982111561317e5761317e6130af565b500190565b60006020828403121561319557600080fd5b815161292c81612ce4565b602080825260169082015275616464726573732063616e6e6f74206265207a65726f60501b604082015260600190565b6020808252602c908201527f46756e6374696f6e206d7573742062652063616c6c6564207468726f7567682060408201526b19195b1959d85d1958d85b1b60a21b606082015260800190565b6020808252602c908201527f46756e6374696f6e206d7573742062652063616c6c6564207468726f7567682060408201526b6163746976652070726f787960a01b606082015260800190565b600063ffffffff8084168061327f5761327f613141565b92169190910692915050565b600063ffffffff808316818516808303821115613102576131026130af565b6000602082840312156132bc57600080fd5b5051919050565b60005b838110156132de5781810151838201526020016132c6565b83811115610c585750506000910152565b7f416363657373436f6e74726f6c3a206163636f756e74200000000000000000008152600083516133278160178501602088016132c3565b7001034b99036b4b9b9b4b733903937b6329607d1b60179184019182015283516133588160288401602088016132c3565b01602801949350505050565b60208152600082518060208401526133838160408501602087016132c3565b601f01601f19169190910160400192915050565b6000602082840312156133a957600080fd5b8151801515811461292c57600080fd5b6000816133c8576133c86130af565b506000190190565b600082516133e28184602087016132c3565b919091019291505056fe360894a13ba1a3210667c828492db98dca3e2076cc3735a920a3ca505d382bbc416464726573733a206c6f772d6c6576656c2064656c65676174652063616c6c206661696c6564c6b4160e1c0b1db56e39bd78fd50fce96544119dd80fe0169cdb3c9706fd5ea6a2646970667358221220136f936ad98804257331cbc192962ac17fd28a67075302817cb287e4e1d39f5a64736f6c63430008090033",
  "devdoc": {
    "kind": "dev",
    "methods": {
      "allStakes(address)": {
        "params": {
          "_staker": "address of staker "
        }
      },
      "borrow(uint256,uint32)": {
        "params": {
          "_amount": "amount of tokens to be borrowed",
          "_borrowPeriod": "borrowing period in seconds "
        }
      },
      "constructor": {
        "custom:oz-upgrades-unsafe-allow": "constructor"
      },
      "getRoleAdmin(bytes32)": {
        "details": "Returns the admin role that controls `role`. See {grantRole} and {revokeRole}. To change a role's admin, use {_setRoleAdmin}."
      },
      "hasRole(bytes32,address)": {
        "details": "Returns `true` if `account` has been granted `role`."
      },
      "initialize(address,address,address)": {
        "params": {
          "_admin": "address of admin that is resposible for managing liquidity lockup operations",
          "_liquidityManager": "address of liquidity manager that is responsible for liquidations of loans",
          "_rwaToken": "address of RWA Vault"
        }
      },
      "isLiquidityManager(address)": {
        "params": {
          "_account": "address to query for role"
        }
      },
      "liquidate((address,uint256,uint256,uint128,uint32,uint32)[])": {
        "params": {
          "_liquidate": "liquidation information"
        }
      },
      "numberOfStakes(address)": {
        "params": {
          "_staker": "address of lender"
        }
      },
      "proxiableUUID()": {
        "details": "Implementation of the ERC1822 {proxiableUUID} function. This returns the storage slot used by the implementation. It is used to validate the implementation's compatibility when performing an upgrade. IMPORTANT: A proxy pointing at a proxiable contract should not be considered proxiable itself, because this risks bricking a proxy that upgrades to it, by delegating to itself until out of gas. Thus it is critical that this function revert if invoked through a proxy. This is guaranteed by the `notDelegated` modifier."
      },
      "renounceRole(bytes32,address)": {
        "details": "Revokes `role` from the calling account. Roles are often managed via {grantRole} and {revokeRole}: this function's purpose is to provide a mechanism for accounts to lose their privileges if they are compromised (such as when a trusted device is misplaced). If the calling account had been revoked `role`, emits a {RoleRevoked} event. Requirements: - the caller must be `account`. May emit a {RoleRevoked} event."
      },
      "stake(uint256,uint32)": {
        "params": {
          "_amount": "amount of shares to stake",
          "_lockingPeriodInSeconds": "locking period converted in seconds"
        }
      },
      "supportsInterface(bytes4)": {
        "details": "See {IERC165-supportsInterface}."
      },
      "unStake(uint256)": {
        "params": {
          "_index": "position number"
        }
      },
      "updateBorrowAPY(uint128)": {
        "params": {
          "_borrowAPY": "percentage in 2 basis point (ex: for 10.03% => 1003)"
        }
      },
      "updateLeverageAllowed(uint64)": {
        "params": {
          "_leverageAllowed": "the new leverage value to be set"
        }
      },
      "updateMinMaxDurationAllowed(uint32,uint32)": {
        "params": {
          "_max": "maximum lockup period in seconds",
          "_min": "minimum lockup period in seconds"
        }
      },
      "updatePenaltyAPY(uint64)": {
        "params": {
          "_penaltyAPY": "percentage in 2 basis point (ex: for 10.03% => 1003)"
        }
      },
      "updatePoolStatus(uint8)": {
        "params": {
          "_status": "status to update"
        }
      },
      "updateSlicePeriod(uint32)": {
        "params": {
          "_slice": "slice period in seconds"
        }
      },
      "upgradeTo(address)": {
        "custom:oz-upgrades-unsafe-allow-reachable": "delegatecall",
        "details": "Upgrade the implementation of the proxy to `newImplementation`. Calls {_authorizeUpgrade}. Emits an {Upgraded} event."
      },
      "upgradeToAndCall(address,bytes)": {
        "custom:oz-upgrades-unsafe-allow-reachable": "delegatecall",
        "details": "Upgrade the implementation of the proxy to `newImplementation`, and subsequently execute the function call encoded in `data`. Calls {_authorizeUpgrade}. Emits an {Upgraded} event."
      }
    },
    "title": "RWA Leverage",
    "version": 1
  },
  "userdoc": {
    "kind": "user",
    "methods": {
      "addLiquidityManager(address)": {
        "notice": "adds new liquidity manager"
      },
      "allStakes(address)": {
        "notice": "returns stakes of given user"
      },
      "borrow(uint256,uint32)": {
        "notice": "allow to borrow pool tokens from RWA vault reserve balance"
      },
      "grantRole(bytes32,address)": {
        "notice": "grants a role to account"
      },
      "initialize(address,address,address)": {
        "notice": "Initializes contract"
      },
      "isLiquidityManager(address)": {
        "notice": "returns true if given address has liquidity manager role"
      },
      "liquidate((address,uint256,uint256,uint128,uint32,uint32)[])": {
        "notice": "liquidates user loans in batch"
      },
      "numberOfStakes(address)": {
        "notice": "returns number of lockups commited by lender"
      },
      "pay()": {
        "notice": "pays existing loan, penalty will be charged in case of late payment"
      },
      "removeLiquidityManager(address)": {
        "notice": "removes existing liquidity manager"
      },
      "stake(uint256,uint32)": {
        "notice": "stakes RWA vault shares for given period"
      },
      "transferAdmin(address)": {
        "notice": "transfer admin role to new account"
      },
      "unStake(uint256)": {
        "notice": "unstakes given position"
      },
      "updateBorrowAPY(uint128)": {
        "notice": "updates borrow APY that will be charged to new loans"
      },
      "updateLeverageAllowed(uint64)": {
        "notice": "updates the allowed leverage for the system"
      },
      "updateMinMaxDurationAllowed(uint32,uint32)": {
        "notice": "updates minimum and maximum period allowed for staking"
      },
      "updatePenaltyAPY(uint64)": {
        "notice": "Updates the penalty APY for overdue loans"
      },
      "updatePoolStatus(uint8)": {
        "notice": "updates pool status"
      },
      "updateSlicePeriod(uint32)": {
        "notice": "updates slice period for staking"
      },
      "withdraw(uint256)": {
        "notice": "withdraws RWA Vault shares from this contract to RWA Vault"
      }
    },
    "notice": "Extension of RWA Vault to manage liquidity lockups and leverage holdings",
    "version": 1
  },
  "storageLayout": {
    "storage": [
      {
        "astId": 948,
        "contract": "contracts/protocol/RWALeverage.sol:RWALeverage",
        "label": "_initialized",
        "offset": 0,
        "slot": "0",
        "type": "t_uint8"
      },
      {
        "astId": 951,
        "contract": "contracts/protocol/RWALeverage.sol:RWALeverage",
        "label": "_initializing",
        "offset": 1,
        "slot": "0",
        "type": "t_bool"
      },
      {
        "astId": 3521,
        "contract": "contracts/protocol/RWALeverage.sol:RWALeverage",
        "label": "__gap",
        "offset": 0,
        "slot": "1",
        "type": "t_array(t_uint256)50_storage"
      },
      {
        "astId": 3904,
        "contract": "contracts/protocol/RWALeverage.sol:RWALeverage",
        "label": "__gap",
        "offset": 0,
        "slot": "51",
        "type": "t_array(t_uint256)50_storage"
      },
      {
        "astId": 39,
        "contract": "contracts/protocol/RWALeverage.sol:RWALeverage",
        "label": "_roles",
        "offset": 0,
        "slot": "101",
        "type": "t_mapping(t_bytes32,t_struct(RoleData)34_storage)"
      },
      {
        "astId": 334,
        "contract": "contracts/protocol/RWALeverage.sol:RWALeverage",
        "label": "__gap",
        "offset": 0,
        "slot": "102",
        "type": "t_array(t_uint256)49_storage"
      },
      {
        "astId": 930,
        "contract": "contracts/protocol/RWALeverage.sol:RWALeverage",
        "label": "__gap",
        "offset": 0,
        "slot": "151",
        "type": "t_array(t_uint256)50_storage"
      },
      {
        "astId": 1245,
        "contract": "contracts/protocol/RWALeverage.sol:RWALeverage",
        "label": "__gap",
        "offset": 0,
        "slot": "201",
        "type": "t_array(t_uint256)50_storage"
      },
      {
        "astId": 4940,
        "contract": "contracts/protocol/RWALeverage.sol:RWALeverage",
        "label": "rwaToken",
        "offset": 0,
        "slot": "251",
        "type": "t_address"
      },
      {
        "astId": 4942,
        "contract": "contracts/protocol/RWALeverage.sol:RWALeverage",
        "label": "slice",
        "offset": 20,
        "slot": "251",
        "type": "t_uint32"
      },
      {
        "astId": 4944,
        "contract": "contracts/protocol/RWALeverage.sol:RWALeverage",
        "label": "maxStakeDurationAllowed",
        "offset": 24,
        "slot": "251",
        "type": "t_uint32"
      },
      {
        "astId": 4946,
        "contract": "contracts/protocol/RWALeverage.sol:RWALeverage",
        "label": "minStakeDurationAllowed",
        "offset": 28,
        "slot": "251",
        "type": "t_uint32"
      },
      {
        "astId": 4948,
        "contract": "contracts/protocol/RWALeverage.sol:RWALeverage",
        "label": "borrowAPY",
        "offset": 0,
        "slot": "252",
        "type": "t_uint128"
      },
      {
        "astId": 4950,
        "contract": "contracts/protocol/RWALeverage.sol:RWALeverage",
        "label": "leverageAllowed",
        "offset": 16,
        "slot": "252",
        "type": "t_uint64"
      },
      {
        "astId": 4952,
        "contract": "contracts/protocol/RWALeverage.sol:RWALeverage",
        "label": "penaltyAPY",
        "offset": 24,
        "slot": "252",
        "type": "t_uint64"
      },
      {
        "astId": 4955,
        "contract": "contracts/protocol/RWALeverage.sol:RWALeverage",
        "label": "status",
        "offset": 0,
        "slot": "253",
        "type": "t_enum(PoolStatus)5003"
      },
      {
        "astId": 4961,
        "contract": "contracts/protocol/RWALeverage.sol:RWALeverage",
        "label": "stakes",
        "offset": 0,
        "slot": "254",
        "type": "t_mapping(t_address,t_array(t_struct(StakeInfo)4975_storage)dyn_storage)"
      },
      {
        "astId": 4966,
        "contract": "contracts/protocol/RWALeverage.sol:RWALeverage",
        "label": "leverages",
        "offset": 0,
        "slot": "255",
        "type": "t_mapping(t_address,t_struct(LeverageInfo)4986_storage)"
      }
    ],
    "types": {
      "t_address": {
        "encoding": "inplace",
        "label": "address",
        "numberOfBytes": "20"
      },
      "t_array(t_struct(StakeInfo)4975_storage)dyn_storage": {
        "base": "t_struct(StakeInfo)4975_storage",
        "encoding": "dynamic_array",
        "label": "struct RWALeverage.StakeInfo[]",
        "numberOfBytes": "32"
      },
      "t_array(t_uint256)49_storage": {
        "base": "t_uint256",
        "encoding": "inplace",
        "label": "uint256[49]",
        "numberOfBytes": "1568"
      },
      "t_array(t_uint256)50_storage": {
        "base": "t_uint256",
        "encoding": "inplace",
        "label": "uint256[50]",
        "numberOfBytes": "1600"
      },
      "t_bool": {
        "encoding": "inplace",
        "label": "bool",
        "numberOfBytes": "1"
      },
      "t_bytes32": {
        "encoding": "inplace",
        "label": "bytes32",
        "numberOfBytes": "32"
      },
      "t_enum(PoolStatus)5003": {
        "encoding": "inplace",
        "label": "enum RWALeverage.PoolStatus",
        "numberOfBytes": "1"
      },
      "t_mapping(t_address,t_array(t_struct(StakeInfo)4975_storage)dyn_storage)": {
        "encoding": "mapping",
        "key": "t_address",
        "label": "mapping(address => struct RWALeverage.StakeInfo[])",
        "numberOfBytes": "32",
        "value": "t_array(t_struct(StakeInfo)4975_storage)dyn_storage"
      },
      "t_mapping(t_address,t_bool)": {
        "encoding": "mapping",
        "key": "t_address",
        "label": "mapping(address => bool)",
        "numberOfBytes": "32",
        "value": "t_bool"
      },
      "t_mapping(t_address,t_struct(LeverageInfo)4986_storage)": {
        "encoding": "mapping",
        "key": "t_address",
        "label": "mapping(address => struct RWALeverage.LeverageInfo)",
        "numberOfBytes": "32",
        "value": "t_struct(LeverageInfo)4986_storage"
      },
      "t_mapping(t_bytes32,t_struct(RoleData)34_storage)": {
        "encoding": "mapping",
        "key": "t_bytes32",
        "label": "mapping(bytes32 => struct AccessControlUpgradeable.RoleData)",
        "numberOfBytes": "32",
        "value": "t_struct(RoleData)34_storage"
      },
      "t_struct(LeverageInfo)4986_storage": {
        "encoding": "inplace",
        "label": "struct RWALeverage.LeverageInfo",
        "members": [
          {
            "astId": 4977,
            "contract": "contracts/protocol/RWALeverage.sol:RWALeverage",
            "label": "totalStaked",
            "offset": 0,
            "slot": "0",
            "type": "t_uint256"
          },
          {
            "astId": 4979,
            "contract": "contracts/protocol/RWALeverage.sol:RWALeverage",
            "label": "totalBorrowed",
            "offset": 0,
            "slot": "1",
            "type": "t_uint256"
          },
          {
            "astId": 4981,
            "contract": "contracts/protocol/RWALeverage.sol:RWALeverage",
            "label": "borrowAPY",
            "offset": 0,
            "slot": "2",
            "type": "t_uint128"
          },
          {
            "astId": 4983,
            "contract": "contracts/protocol/RWALeverage.sol:RWALeverage",
            "label": "borrowTime",
            "offset": 16,
            "slot": "2",
            "type": "t_uint32"
          },
          {
            "astId": 4985,
            "contract": "contracts/protocol/RWALeverage.sol:RWALeverage",
            "label": "paymentDue",
            "offset": 20,
            "slot": "2",
            "type": "t_uint32"
          }
        ],
        "numberOfBytes": "96"
      },
      "t_struct(RoleData)34_storage": {
        "encoding": "inplace",
        "label": "struct AccessControlUpgradeable.RoleData",
        "members": [
          {
            "astId": 31,
            "contract": "contracts/protocol/RWALeverage.sol:RWALeverage",
            "label": "members",
            "offset": 0,
            "slot": "0",
            "type": "t_mapping(t_address,t_bool)"
          },
          {
            "astId": 33,
            "contract": "contracts/protocol/RWALeverage.sol:RWALeverage",
            "label": "adminRole",
            "offset": 0,
            "slot": "1",
            "type": "t_bytes32"
          }
        ],
        "numberOfBytes": "64"
      },
      "t_struct(StakeInfo)4975_storage": {
        "encoding": "inplace",
        "label": "struct RWALeverage.StakeInfo",
        "members": [
          {
            "astId": 4968,
            "contract": "contracts/protocol/RWALeverage.sol:RWALeverage",
            "label": "amount",
            "offset": 0,
            "slot": "0",
            "type": "t_uint256"
          },
          {
            "astId": 4970,
            "contract": "contracts/protocol/RWALeverage.sol:RWALeverage",
            "label": "lockTime",
            "offset": 0,
            "slot": "1",
            "type": "t_uint32"
          },
          {
            "astId": 4972,
            "contract": "contracts/protocol/RWALeverage.sol:RWALeverage",
            "label": "unlockTime",
            "offset": 4,
            "slot": "1",
            "type": "t_uint32"
          },
          {
            "astId": 4974,
            "contract": "contracts/protocol/RWALeverage.sol:RWALeverage",
            "label": "isUnstaked",
            "offset": 8,
            "slot": "1",
            "type": "t_bool"
          }
        ],
        "numberOfBytes": "64"
      },
      "t_uint128": {
        "encoding": "inplace",
        "label": "uint128",
        "numberOfBytes": "16"
      },
      "t_uint256": {
        "encoding": "inplace",
        "label": "uint256",
        "numberOfBytes": "32"
      },
      "t_uint32": {
        "encoding": "inplace",
        "label": "uint32",
        "numberOfBytes": "4"
      },
      "t_uint64": {
        "encoding": "inplace",
        "label": "uint64",
        "numberOfBytes": "8"
      },
      "t_uint8": {
        "encoding": "inplace",
        "label": "uint8",
        "numberOfBytes": "1"
      }
    }
  }
}