{
  "address": "0x8B195eFbCBD9d96223B0FEAf8798BA543c38B577",
  "abi": [
    {
      "inputs": [],
      "stateMutability": "nonpayable",
      "type": "constructor"
    },
    {
      "inputs": [
        {
          "internalType": "uint256",
          "name": "_poolSize",
          "type": "uint256"
        }
      ],
      "name": "InvalidPoolSize",
      "type": "error"
    },
    {
      "inputs": [],
      "name": "InvalidStatusUpdate",
      "type": "error"
    },
    {
      "inputs": [],
      "name": "PoolIsNotActive",
      "type": "error"
    },
    {
      "inputs": [],
      "name": "WithdrawalPending",
      "type": "error"
    },
    {
      "anonymous": false,
      "inputs": [
        {
          "indexed": false,
          "internalType": "address",
          "name": "previousAdmin",
          "type": "address"
        },
        {
          "indexed": false,
          "internalType": "address",
          "name": "newAdmin",
          "type": "address"
        }
      ],
      "name": "AdminChanged",
      "type": "event"
    },
    {
      "anonymous": false,
      "inputs": [
        {
          "indexed": false,
          "internalType": "address",
          "name": "_oldOwner",
          "type": "address"
        },
        {
          "indexed": false,
          "internalType": "address",
          "name": "_newOwner",
          "type": "address"
        }
      ],
      "name": "AdminTransferred",
      "type": "event"
    },
    {
      "anonymous": false,
      "inputs": [
        {
          "indexed": true,
          "internalType": "address",
          "name": "owner",
          "type": "address"
        },
        {
          "indexed": true,
          "internalType": "address",
          "name": "spender",
          "type": "address"
        },
        {
          "indexed": false,
          "internalType": "uint256",
          "name": "value",
          "type": "uint256"
        }
      ],
      "name": "Approval",
      "type": "event"
    },
    {
      "anonymous": false,
      "inputs": [
        {
          "indexed": true,
          "internalType": "address",
          "name": "_by",
          "type": "address"
        },
        {
          "indexed": false,
          "internalType": "uint256",
          "name": "_prevValue",
          "type": "uint256"
        },
        {
          "indexed": false,
          "internalType": "uint256",
          "name": "_newValue",
          "type": "uint256"
        }
      ],
      "name": "AssetUnderManagementUpdated",
      "type": "event"
    },
    {
      "anonymous": false,
      "inputs": [
        {
          "indexed": true,
          "internalType": "address",
          "name": "beacon",
          "type": "address"
        }
      ],
      "name": "BeaconUpgraded",
      "type": "event"
    },
    {
      "anonymous": false,
      "inputs": [
        {
          "indexed": true,
          "internalType": "address",
          "name": "sender",
          "type": "address"
        },
        {
          "indexed": true,
          "internalType": "address",
          "name": "owner",
          "type": "address"
        },
        {
          "indexed": false,
          "internalType": "uint256",
          "name": "assets",
          "type": "uint256"
        },
        {
          "indexed": false,
          "internalType": "uint256",
          "name": "shares",
          "type": "uint256"
        }
      ],
      "name": "Deposit",
      "type": "event"
    },
    {
      "anonymous": false,
      "inputs": [
        {
          "indexed": false,
          "internalType": "address",
          "name": "_account",
          "type": "address"
        }
      ],
      "name": "GrantManagerAdded",
      "type": "event"
    },
    {
      "anonymous": false,
      "inputs": [
        {
          "indexed": false,
          "internalType": "address",
          "name": "_account",
          "type": "address"
        }
      ],
      "name": "GrantManagerRemoved",
      "type": "event"
    },
    {
      "anonymous": false,
      "inputs": [
        {
          "indexed": true,
          "internalType": "address",
          "name": "_by",
          "type": "address"
        },
        {
          "indexed": false,
          "internalType": "address",
          "name": "_to",
          "type": "address"
        },
        {
          "indexed": false,
          "internalType": "uint256",
          "name": "_amount",
          "type": "uint256"
        }
      ],
      "name": "Granted",
      "type": "event"
    },
    {
      "anonymous": false,
      "inputs": [
        {
          "indexed": false,
          "internalType": "uint8",
          "name": "version",
          "type": "uint8"
        }
      ],
      "name": "Initialized",
      "type": "event"
    },
    {
      "anonymous": false,
      "inputs": [
        {
          "indexed": false,
          "internalType": "address",
          "name": "_account",
          "type": "address"
        }
      ],
      "name": "OracleManagerAdded",
      "type": "event"
    },
    {
      "anonymous": false,
      "inputs": [
        {
          "indexed": false,
          "internalType": "address",
          "name": "_account",
          "type": "address"
        }
      ],
      "name": "OracleManagerRemoved",
      "type": "event"
    },
    {
      "anonymous": false,
      "inputs": [
        {
          "indexed": false,
          "internalType": "address",
          "name": "account",
          "type": "address"
        }
      ],
      "name": "Paused",
      "type": "event"
    },
    {
      "anonymous": false,
      "inputs": [
        {
          "indexed": true,
          "internalType": "address",
          "name": "_by",
          "type": "address"
        },
        {
          "indexed": false,
          "internalType": "enum RWAVault.PoolStatus",
          "name": "_prevStatus",
          "type": "uint8"
        },
        {
          "indexed": false,
          "internalType": "enum RWAVault.PoolStatus",
          "name": "_newStatus",
          "type": "uint8"
        }
      ],
      "name": "PoolStatusUpdated",
      "type": "event"
    },
    {
      "anonymous": false,
      "inputs": [
        {
          "indexed": true,
          "internalType": "bytes32",
          "name": "role",
          "type": "bytes32"
        },
        {
          "indexed": true,
          "internalType": "bytes32",
          "name": "previousAdminRole",
          "type": "bytes32"
        },
        {
          "indexed": true,
          "internalType": "bytes32",
          "name": "newAdminRole",
          "type": "bytes32"
        }
      ],
      "name": "RoleAdminChanged",
      "type": "event"
    },
    {
      "anonymous": false,
      "inputs": [
        {
          "indexed": true,
          "internalType": "bytes32",
          "name": "role",
          "type": "bytes32"
        },
        {
          "indexed": true,
          "internalType": "address",
          "name": "account",
          "type": "address"
        },
        {
          "indexed": true,
          "internalType": "address",
          "name": "sender",
          "type": "address"
        }
      ],
      "name": "RoleGranted",
      "type": "event"
    },
    {
      "anonymous": false,
      "inputs": [
        {
          "indexed": true,
          "internalType": "bytes32",
          "name": "role",
          "type": "bytes32"
        },
        {
          "indexed": true,
          "internalType": "address",
          "name": "account",
          "type": "address"
        },
        {
          "indexed": true,
          "internalType": "address",
          "name": "sender",
          "type": "address"
        }
      ],
      "name": "RoleRevoked",
      "type": "event"
    },
    {
      "anonymous": false,
      "inputs": [
        {
          "indexed": true,
          "internalType": "address",
          "name": "from",
          "type": "address"
        },
        {
          "indexed": true,
          "internalType": "address",
          "name": "to",
          "type": "address"
        },
        {
          "indexed": false,
          "internalType": "uint256",
          "name": "value",
          "type": "uint256"
        }
      ],
      "name": "Transfer",
      "type": "event"
    },
    {
      "anonymous": false,
      "inputs": [
        {
          "indexed": false,
          "internalType": "address",
          "name": "account",
          "type": "address"
        }
      ],
      "name": "Unpaused",
      "type": "event"
    },
    {
      "anonymous": false,
      "inputs": [
        {
          "indexed": true,
          "internalType": "address",
          "name": "implementation",
          "type": "address"
        }
      ],
      "name": "Upgraded",
      "type": "event"
    },
    {
      "anonymous": false,
      "inputs": [
        {
          "indexed": true,
          "internalType": "address",
          "name": "sender",
          "type": "address"
        },
        {
          "indexed": true,
          "internalType": "address",
          "name": "receiver",
          "type": "address"
        },
        {
          "indexed": true,
          "internalType": "address",
          "name": "owner",
          "type": "address"
        },
        {
          "indexed": false,
          "internalType": "uint256",
          "name": "assets",
          "type": "uint256"
        },
        {
          "indexed": false,
          "internalType": "uint256",
          "name": "shares",
          "type": "uint256"
        }
      ],
      "name": "Withdraw",
      "type": "event"
    },
    {
      "inputs": [],
      "name": "DEFAULT_ADMIN_ROLE",
      "outputs": [
        {
          "internalType": "bytes32",
          "name": "",
          "type": "bytes32"
        }
      ],
      "stateMutability": "view",
      "type": "function"
    },
    {
      "inputs": [],
      "name": "ROLE_GRANT_MANAGER",
      "outputs": [
        {
          "internalType": "bytes32",
          "name": "",
          "type": "bytes32"
        }
      ],
      "stateMutability": "view",
      "type": "function"
    },
    {
      "inputs": [],
      "name": "ROLE_ORACLE_MANAGER",
      "outputs": [
        {
          "internalType": "bytes32",
          "name": "",
          "type": "bytes32"
        }
      ],
      "stateMutability": "view",
      "type": "function"
    },
    {
      "inputs": [],
      "name": "activatePool",
      "outputs": [],
      "stateMutability": "nonpayable",
      "type": "function"
    },
    {
      "inputs": [],
      "name": "activationTime",
      "outputs": [
        {
          "internalType": "uint64",
          "name": "",
          "type": "uint64"
        }
      ],
      "stateMutability": "view",
      "type": "function"
    },
    {
      "inputs": [
        {
          "internalType": "address",
          "name": "_account",
          "type": "address"
        }
      ],
      "name": "addGrantManager",
      "outputs": [],
      "stateMutability": "nonpayable",
      "type": "function"
    },
    {
      "inputs": [
        {
          "internalType": "address",
          "name": "_account",
          "type": "address"
        }
      ],
      "name": "addOracleManager",
      "outputs": [],
      "stateMutability": "nonpayable",
      "type": "function"
    },
    {
      "inputs": [
        {
          "internalType": "address",
          "name": "owner",
          "type": "address"
        },
        {
          "internalType": "address",
          "name": "spender",
          "type": "address"
        }
      ],
      "name": "allowance",
      "outputs": [
        {
          "internalType": "uint256",
          "name": "",
          "type": "uint256"
        }
      ],
      "stateMutability": "view",
      "type": "function"
    },
    {
      "inputs": [
        {
          "internalType": "address",
          "name": "spender",
          "type": "address"
        },
        {
          "internalType": "uint256",
          "name": "amount",
          "type": "uint256"
        }
      ],
      "name": "approve",
      "outputs": [
        {
          "internalType": "bool",
          "name": "",
          "type": "bool"
        }
      ],
      "stateMutability": "nonpayable",
      "type": "function"
    },
    {
      "inputs": [],
      "name": "asset",
      "outputs": [
        {
          "internalType": "address",
          "name": "",
          "type": "address"
        }
      ],
      "stateMutability": "view",
      "type": "function"
    },
    {
      "inputs": [],
      "name": "assetUnderManagement",
      "outputs": [
        {
          "internalType": "uint256",
          "name": "",
          "type": "uint256"
        }
      ],
      "stateMutability": "view",
      "type": "function"
    },
    {
      "inputs": [
        {
          "internalType": "address",
          "name": "account",
          "type": "address"
        }
      ],
      "name": "balanceOf",
      "outputs": [
        {
          "internalType": "uint256",
          "name": "",
          "type": "uint256"
        }
      ],
      "stateMutability": "view",
      "type": "function"
    },
    {
      "inputs": [],
      "name": "closePool",
      "outputs": [],
      "stateMutability": "nonpayable",
      "type": "function"
    },
    {
      "inputs": [
        {
          "internalType": "uint256",
          "name": "shares",
          "type": "uint256"
        }
      ],
      "name": "convertToAssets",
      "outputs": [
        {
          "internalType": "uint256",
          "name": "",
          "type": "uint256"
        }
      ],
      "stateMutability": "view",
      "type": "function"
    },
    {
      "inputs": [
        {
          "internalType": "uint256",
          "name": "assets",
          "type": "uint256"
        }
      ],
      "name": "convertToShares",
      "outputs": [
        {
          "internalType": "uint256",
          "name": "",
          "type": "uint256"
        }
      ],
      "stateMutability": "view",
      "type": "function"
    },
    {
      "inputs": [],
      "name": "decimals",
      "outputs": [
        {
          "internalType": "uint8",
          "name": "",
          "type": "uint8"
        }
      ],
      "stateMutability": "view",
      "type": "function"
    },
    {
      "inputs": [
        {
          "internalType": "address",
          "name": "spender",
          "type": "address"
        },
        {
          "internalType": "uint256",
          "name": "subtractedValue",
          "type": "uint256"
        }
      ],
      "name": "decreaseAllowance",
      "outputs": [
        {
          "internalType": "bool",
          "name": "",
          "type": "bool"
        }
      ],
      "stateMutability": "nonpayable",
      "type": "function"
    },
    {
      "inputs": [
        {
          "internalType": "uint256",
          "name": "assets",
          "type": "uint256"
        },
        {
          "internalType": "address",
          "name": "receiver",
          "type": "address"
        }
      ],
      "name": "deposit",
      "outputs": [
        {
          "internalType": "uint256",
          "name": "shares",
          "type": "uint256"
        }
      ],
      "stateMutability": "nonpayable",
      "type": "function"
    },
    {
      "inputs": [
        {
          "internalType": "bytes32",
          "name": "role",
          "type": "bytes32"
        }
      ],
      "name": "getRoleAdmin",
      "outputs": [
        {
          "internalType": "bytes32",
          "name": "",
          "type": "bytes32"
        }
      ],
      "stateMutability": "view",
      "type": "function"
    },
    {
      "inputs": [
        {
          "internalType": "address",
          "name": "_to",
          "type": "address"
        },
        {
          "internalType": "uint256",
          "name": "_amount",
          "type": "uint256"
        }
      ],
      "name": "grant",
      "outputs": [],
      "stateMutability": "nonpayable",
      "type": "function"
    },
    {
      "inputs": [
        {
          "internalType": "bytes32",
          "name": "role",
          "type": "bytes32"
        },
        {
          "internalType": "address",
          "name": "_account",
          "type": "address"
        }
      ],
      "name": "grantRole",
      "outputs": [],
      "stateMutability": "nonpayable",
      "type": "function"
    },
    {
      "inputs": [
        {
          "internalType": "bytes32",
          "name": "role",
          "type": "bytes32"
        },
        {
          "internalType": "address",
          "name": "account",
          "type": "address"
        }
      ],
      "name": "hasRole",
      "outputs": [
        {
          "internalType": "bool",
          "name": "",
          "type": "bool"
        }
      ],
      "stateMutability": "view",
      "type": "function"
    },
    {
      "inputs": [
        {
          "internalType": "address",
          "name": "spender",
          "type": "address"
        },
        {
          "internalType": "uint256",
          "name": "addedValue",
          "type": "uint256"
        }
      ],
      "name": "increaseAllowance",
      "outputs": [
        {
          "internalType": "bool",
          "name": "",
          "type": "bool"
        }
      ],
      "stateMutability": "nonpayable",
      "type": "function"
    },
    {
      "inputs": [
        {
          "internalType": "address",
          "name": "_poolManager",
          "type": "address"
        },
        {
          "internalType": "address",
          "name": "_poolToken",
          "type": "address"
        },
        {
          "internalType": "address",
          "name": "_treasury",
          "type": "address"
        },
        {
          "internalType": "address",
          "name": "_oracleManager",
          "type": "address"
        },
        {
          "internalType": "uint256",
          "name": "_poolSize",
          "type": "uint256"
        }
      ],
      "name": "initialize",
      "outputs": [],
      "stateMutability": "nonpayable",
      "type": "function"
    },
    {
      "inputs": [
        {
          "internalType": "address",
          "name": "_account",
          "type": "address"
        }
      ],
      "name": "isGrantManager",
      "outputs": [
        {
          "internalType": "bool",
          "name": "",
          "type": "bool"
        }
      ],
      "stateMutability": "view",
      "type": "function"
    },
    {
      "inputs": [
        {
          "internalType": "address",
          "name": "_account",
          "type": "address"
        }
      ],
      "name": "isOracleManager",
      "outputs": [
        {
          "internalType": "bool",
          "name": "",
          "type": "bool"
        }
      ],
      "stateMutability": "view",
      "type": "function"
    },
    {
      "inputs": [
        {
          "internalType": "address",
          "name": "",
          "type": "address"
        }
      ],
      "name": "maxDeposit",
      "outputs": [
        {
          "internalType": "uint256",
          "name": "",
          "type": "uint256"
        }
      ],
      "stateMutability": "view",
      "type": "function"
    },
    {
      "inputs": [
        {
          "internalType": "address",
          "name": "",
          "type": "address"
        }
      ],
      "name": "maxMint",
      "outputs": [
        {
          "internalType": "uint256",
          "name": "",
          "type": "uint256"
        }
      ],
      "stateMutability": "view",
      "type": "function"
    },
    {
      "inputs": [
        {
          "internalType": "address",
          "name": "",
          "type": "address"
        }
      ],
      "name": "maxRedeem",
      "outputs": [
        {
          "internalType": "uint256",
          "name": "",
          "type": "uint256"
        }
      ],
      "stateMutability": "view",
      "type": "function"
    },
    {
      "inputs": [
        {
          "internalType": "address",
          "name": "",
          "type": "address"
        }
      ],
      "name": "maxWithdraw",
      "outputs": [
        {
          "internalType": "uint256",
          "name": "",
          "type": "uint256"
        }
      ],
      "stateMutability": "view",
      "type": "function"
    },
    {
      "inputs": [
        {
          "internalType": "uint256",
          "name": "shares",
          "type": "uint256"
        },
        {
          "internalType": "address",
          "name": "receiver",
          "type": "address"
        }
      ],
      "name": "mint",
      "outputs": [
        {
          "internalType": "uint256",
          "name": "assets",
          "type": "uint256"
        }
      ],
      "stateMutability": "nonpayable",
      "type": "function"
    },
    {
      "inputs": [],
      "name": "name",
      "outputs": [
        {
          "internalType": "string",
          "name": "",
          "type": "string"
        }
      ],
      "stateMutability": "view",
      "type": "function"
    },
    {
      "inputs": [],
      "name": "nonReservePercentage",
      "outputs": [
        {
          "internalType": "uint64",
          "name": "",
          "type": "uint64"
        }
      ],
      "stateMutability": "view",
      "type": "function"
    },
    {
      "inputs": [],
      "name": "pause",
      "outputs": [],
      "stateMutability": "nonpayable",
      "type": "function"
    },
    {
      "inputs": [],
      "name": "paused",
      "outputs": [
        {
          "internalType": "bool",
          "name": "",
          "type": "bool"
        }
      ],
      "stateMutability": "view",
      "type": "function"
    },
    {
      "inputs": [],
      "name": "poolSize",
      "outputs": [
        {
          "internalType": "uint256",
          "name": "",
          "type": "uint256"
        }
      ],
      "stateMutability": "view",
      "type": "function"
    },
    {
      "inputs": [],
      "name": "poolToken",
      "outputs": [
        {
          "internalType": "address",
          "name": "",
          "type": "address"
        }
      ],
      "stateMutability": "view",
      "type": "function"
    },
    {
      "inputs": [
        {
          "internalType": "uint256",
          "name": "assets",
          "type": "uint256"
        }
      ],
      "name": "previewDeposit",
      "outputs": [
        {
          "internalType": "uint256",
          "name": "",
          "type": "uint256"
        }
      ],
      "stateMutability": "view",
      "type": "function"
    },
    {
      "inputs": [
        {
          "internalType": "uint256",
          "name": "shares",
          "type": "uint256"
        }
      ],
      "name": "previewMint",
      "outputs": [
        {
          "internalType": "uint256",
          "name": "",
          "type": "uint256"
        }
      ],
      "stateMutability": "view",
      "type": "function"
    },
    {
      "inputs": [
        {
          "internalType": "uint256",
          "name": "shares",
          "type": "uint256"
        }
      ],
      "name": "previewRedeem",
      "outputs": [
        {
          "internalType": "uint256",
          "name": "",
          "type": "uint256"
        }
      ],
      "stateMutability": "view",
      "type": "function"
    },
    {
      "inputs": [
        {
          "internalType": "uint256",
          "name": "assets",
          "type": "uint256"
        }
      ],
      "name": "previewWithdraw",
      "outputs": [
        {
          "internalType": "uint256",
          "name": "",
          "type": "uint256"
        }
      ],
      "stateMutability": "view",
      "type": "function"
    },
    {
      "inputs": [],
      "name": "proxiableUUID",
      "outputs": [
        {
          "internalType": "bytes32",
          "name": "",
          "type": "bytes32"
        }
      ],
      "stateMutability": "view",
      "type": "function"
    },
    {
      "inputs": [
        {
          "internalType": "uint256",
          "name": "shares",
          "type": "uint256"
        },
        {
          "internalType": "address",
          "name": "receiver",
          "type": "address"
        },
        {
          "internalType": "address",
          "name": "owner",
          "type": "address"
        }
      ],
      "name": "redeem",
      "outputs": [
        {
          "internalType": "uint256",
          "name": "",
          "type": "uint256"
        }
      ],
      "stateMutability": "nonpayable",
      "type": "function"
    },
    {
      "inputs": [
        {
          "internalType": "address",
          "name": "_account",
          "type": "address"
        }
      ],
      "name": "removeGrantManager",
      "outputs": [],
      "stateMutability": "nonpayable",
      "type": "function"
    },
    {
      "inputs": [
        {
          "internalType": "address",
          "name": "_account",
          "type": "address"
        }
      ],
      "name": "removeOracleManager",
      "outputs": [],
      "stateMutability": "nonpayable",
      "type": "function"
    },
    {
      "inputs": [
        {
          "internalType": "bytes32",
          "name": "role",
          "type": "bytes32"
        },
        {
          "internalType": "address",
          "name": "account",
          "type": "address"
        }
      ],
      "name": "renounceRole",
      "outputs": [],
      "stateMutability": "nonpayable",
      "type": "function"
    },
    {
      "inputs": [
        {
          "internalType": "bytes32",
          "name": "role",
          "type": "bytes32"
        },
        {
          "internalType": "address",
          "name": "_account",
          "type": "address"
        }
      ],
      "name": "revokeRole",
      "outputs": [],
      "stateMutability": "nonpayable",
      "type": "function"
    },
    {
      "inputs": [],
      "name": "status",
      "outputs": [
        {
          "internalType": "enum RWAVault.PoolStatus",
          "name": "",
          "type": "uint8"
        }
      ],
      "stateMutability": "view",
      "type": "function"
    },
    {
      "inputs": [],
      "name": "suppliedAPY",
      "outputs": [
        {
          "internalType": "int256",
          "name": "APY",
          "type": "int256"
        }
      ],
      "stateMutability": "view",
      "type": "function"
    },
    {
      "inputs": [
        {
          "internalType": "bytes4",
          "name": "interfaceId",
          "type": "bytes4"
        }
      ],
      "name": "supportsInterface",
      "outputs": [
        {
          "internalType": "bool",
          "name": "",
          "type": "bool"
        }
      ],
      "stateMutability": "view",
      "type": "function"
    },
    {
      "inputs": [],
      "name": "symbol",
      "outputs": [
        {
          "internalType": "string",
          "name": "",
          "type": "string"
        }
      ],
      "stateMutability": "view",
      "type": "function"
    },
    {
      "inputs": [],
      "name": "totalAssets",
      "outputs": [
        {
          "internalType": "uint256",
          "name": "",
          "type": "uint256"
        }
      ],
      "stateMutability": "view",
      "type": "function"
    },
    {
      "inputs": [],
      "name": "totalSupply",
      "outputs": [
        {
          "internalType": "uint256",
          "name": "",
          "type": "uint256"
        }
      ],
      "stateMutability": "view",
      "type": "function"
    },
    {
      "inputs": [
        {
          "internalType": "address",
          "name": "to",
          "type": "address"
        },
        {
          "internalType": "uint256",
          "name": "amount",
          "type": "uint256"
        }
      ],
      "name": "transfer",
      "outputs": [
        {
          "internalType": "bool",
          "name": "",
          "type": "bool"
        }
      ],
      "stateMutability": "nonpayable",
      "type": "function"
    },
    {
      "inputs": [
        {
          "internalType": "address",
          "name": "_newOwner",
          "type": "address"
        }
      ],
      "name": "transferAdmin",
      "outputs": [],
      "stateMutability": "nonpayable",
      "type": "function"
    },
    {
      "inputs": [
        {
          "internalType": "address",
          "name": "from",
          "type": "address"
        },
        {
          "internalType": "address",
          "name": "to",
          "type": "address"
        },
        {
          "internalType": "uint256",
          "name": "amount",
          "type": "uint256"
        }
      ],
      "name": "transferFrom",
      "outputs": [
        {
          "internalType": "bool",
          "name": "",
          "type": "bool"
        }
      ],
      "stateMutability": "nonpayable",
      "type": "function"
    },
    {
      "inputs": [],
      "name": "treasury",
      "outputs": [
        {
          "internalType": "address",
          "name": "",
          "type": "address"
        }
      ],
      "stateMutability": "view",
      "type": "function"
    },
    {
      "inputs": [],
      "name": "unpause",
      "outputs": [],
      "stateMutability": "nonpayable",
      "type": "function"
    },
    {
      "inputs": [
        {
          "internalType": "uint256",
          "name": "_assetUnderManagement",
          "type": "uint256"
        }
      ],
      "name": "updateAssetUnderManagement",
      "outputs": [],
      "stateMutability": "nonpayable",
      "type": "function"
    },
    {
      "inputs": [
        {
          "internalType": "uint64",
          "name": "_percentage",
          "type": "uint64"
        }
      ],
      "name": "updateNonReservePercentage",
      "outputs": [],
      "stateMutability": "nonpayable",
      "type": "function"
    },
    {
      "inputs": [
        {
          "internalType": "uint256",
          "name": "_poolSize",
          "type": "uint256"
        }
      ],
      "name": "updatePoolSize",
      "outputs": [],
      "stateMutability": "nonpayable",
      "type": "function"
    },
    {
      "inputs": [
        {
          "internalType": "address",
          "name": "newImplementation",
          "type": "address"
        }
      ],
      "name": "upgradeTo",
      "outputs": [],
      "stateMutability": "nonpayable",
      "type": "function"
    },
    {
      "inputs": [
        {
          "internalType": "address",
          "name": "newImplementation",
          "type": "address"
        },
        {
          "internalType": "bytes",
          "name": "data",
          "type": "bytes"
        }
      ],
      "name": "upgradeToAndCall",
      "outputs": [],
      "stateMutability": "payable",
      "type": "function"
    },
    {
      "inputs": [
        {
          "internalType": "uint256",
          "name": "assets",
          "type": "uint256"
        },
        {
          "internalType": "address",
          "name": "receiver",
          "type": "address"
        },
        {
          "internalType": "address",
          "name": "owner",
          "type": "address"
        }
      ],
      "name": "withdraw",
      "outputs": [
        {
          "internalType": "uint256",
          "name": "",
          "type": "uint256"
        }
      ],
      "stateMutability": "nonpayable",
      "type": "function"
    }
  ],
  "transactionHash": "0xaeffc657f71d2482f82d564d2e0e840156b5ff564c6273354ba5bc411aaaed2e",
  "args": [],
  "numDeployments": 1,
  "solcInputHash": "bf0625331bce5455fac474ec9e940e9f",
  "bytecode": "0x60a0604052306080523480156200001557600080fd5b506200002062000026565b620000e7565b600054610100900460ff1615620000935760405162461bcd60e51b815260206004820152602760248201527f496e697469616c697a61626c653a20636f6e747261637420697320696e697469604482015266616c697a696e6760c81b606482015260840160405180910390fd5b60005460ff90811614620000e5576000805460ff191660ff9081179091556040519081527f7f26b83ff96e1f2b6a682f133852f6798a09c465da95921460cefb38474024989060200160405180910390a15b565b608051613d5f6200011f60003960008181610f5301528181610f93015281816110bb015281816110fb015261118a0152613d5f6000f3fe6080604052600436106103c35760003560e01c806375829def116101f2578063c63d75b61161010d578063dd62ed3e116100a0578063f3d6d1311161006f578063f3d6d13114610b15578063f7013ef614610b35578063f7f79b9614610b55578063fe1ebda914610b7557600080fd5b8063dd62ed3e14610ac9578063e232ef0a14610ae9578063e982053614610b00578063ef8b30f7146109e657600080fd5b8063d547741f116100dc578063d547741f14610a47578063d6c87e5b14610a67578063d905777e14610a87578063da4493f614610aa757600080fd5b8063c63d75b6146109c6578063c6e6f592146109e6578063cbdf382c14610a06578063ce96cb7714610a2757600080fd5b8063a676a9d311610185578063b3cf20d711610154578063b3cf20d714610946578063b3d7f6b914610966578063b460af9414610986578063ba087652146109a657600080fd5b8063a676a9d3146108ad578063a8e67bfc146108ef578063a9059cbb14610904578063b337b1961461092457600080fd5b806394bf804d116101c157806394bf804d1461084357806395d89b4114610863578063a217fddf14610878578063a457c2d71461088d57600080fd5b806375829def146107ce57806381644632146107ee5780638456cb591461080e57806391d148541461082357600080fd5b806338d52e0f116102e257806352d1902d116102755780636370920e116102445780636370920e1461074257806366805de5146107625780636e553f651461077757806370a082311461079757600080fd5b806352d1902d146106d257806354c2eef8146106e75780635c975abb1461070957806361d027b31461072157600080fd5b8063402d267d116102b1578063402d267d146106885780634cdad506146104425780634ec18db9146106a85780634f1ef286146106bf57600080fd5b806338d52e0f1461060057806339509351146106335780633f4ba83a146106535780633fe091fa1461066857600080fd5b8063216adbf71161035a5780632f2ff15d116103295780632f2ff15d14610579578063313ce5671461059957806336568abe146105c05780633659cfe6146105e057600080fd5b8063216adbf7146104e757806323b872dd14610509578063248a9ca3146105295780632ab38b5f1461055957600080fd5b8063095ea7b311610396578063095ea7b3146104625780630a28a4771461048257806318160ddd146104a2578063200d2ed2146104b857600080fd5b806301e1d114146103c857806301ffc9a7146103f057806306fdde031461042057806307a2d13a14610442575b600080fd5b3480156103d457600080fd5b506103dd610b95565b6040519081526020015b60405180910390f35b3480156103fc57600080fd5b5061041061040b366004613463565b610cb5565b60405190151581526020016103e7565b34801561042c57600080fd5b50610435610cec565b6040516103e791906134b9565b34801561044e57600080fd5b506103dd61045d3660046134ec565b610d7f565b34801561046e57600080fd5b5061041061047d366004613521565b610d8c565b34801561048e57600080fd5b506103dd61049d3660046134ec565b610da4565b3480156104ae57600080fd5b5061012f546103dd565b3480156104c457600080fd5b50610192546104da90600160a01b900460ff1681565b6040516103e79190613583565b3480156104f357600080fd5b50610507610502366004613591565b610db1565b005b34801561051557600080fd5b506104106105243660046135ac565b610e15565b34801561053557600080fd5b506103dd6105443660046134ec565b60009081526065602052604090206001015490565b34801561056557600080fd5b506105076105743660046134ec565b610e3b565b34801561058557600080fd5b506105076105943660046135e8565b610e7d565b3480156105a557600080fd5b506105ae610eaf565b60405160ff90911681526020016103e7565b3480156105cc57600080fd5b506105076105db3660046135e8565b610eca565b3480156105ec57600080fd5b506105076105fb366004613591565b610f48565b34801561060c57600080fd5b5061015f546001600160a01b03165b6040516001600160a01b0390911681526020016103e7565b34801561063f57600080fd5b5061041061064e366004613521565b611028565b34801561065f57600080fd5b5061050761104a565b34801561067457600080fd5b50610507610683366004613614565b61105d565b34801561069457600080fd5b506103dd6106a3366004613591565b611098565b3480156106b457600080fd5b506103dd6101935481565b6105076106cd366004613654565b6110b0565b3480156106de57600080fd5b506103dd61117d565b3480156106f357600080fd5b506103dd600080516020613d0a83398151915281565b34801561071557600080fd5b5060fb5460ff16610410565b34801561072d57600080fd5b506101925461061b906001600160a01b031681565b34801561074e57600080fd5b5061050761075d366004613521565b611230565b34801561076e57600080fd5b506105076112a8565b34801561078357600080fd5b506103dd6107923660046135e8565b61138a565b3480156107a357600080fd5b506103dd6107b2366004613591565b6001600160a01b0316600090815261012d602052604090205490565b3480156107da57600080fd5b506105076107e9366004613591565b611426565b3480156107fa57600080fd5b50610507610809366004613591565b611483565b34801561081a57600080fd5b506105076114df565b34801561082f57600080fd5b5061041061083e3660046135e8565b6114f2565b34801561084f57600080fd5b506103dd61085e3660046135e8565b61151d565b34801561086f57600080fd5b506104356115aa565b34801561088457600080fd5b506103dd600081565b34801561089957600080fd5b506104106108a8366004613521565b6115ba565b3480156108b957600080fd5b50610195546108d690600160401b900467ffffffffffffffff1681565b60405167ffffffffffffffff90911681526020016103e7565b3480156108fb57600080fd5b50610507611640565b34801561091057600080fd5b5061041061091f366004613521565b6116fd565b34801561093057600080fd5b506103dd600080516020613ca383398151915281565b34801561095257600080fd5b50610410610961366004613591565b61170b565b34801561097257600080fd5b506103dd6109813660046134ec565b611725565b34801561099257600080fd5b506103dd6109a1366004613716565b611732565b3480156109b257600080fd5b506103dd6109c1366004613716565b611786565b3480156109d257600080fd5b506103dd6109e1366004613591565b6117d2565b3480156109f257600080fd5b506103dd610a013660046134ec565b6117ed565b348015610a1257600080fd5b506101915461061b906001600160a01b031681565b348015610a3357600080fd5b506103dd610a42366004613591565b6117fa565b348015610a5357600080fd5b50610507610a623660046135e8565b611877565b348015610a7357600080fd5b50610410610a82366004613591565b6118a4565b348015610a9357600080fd5b506103dd610aa2366004613591565b6118be565b348015610ab357600080fd5b50610195546108d69067ffffffffffffffff1681565b348015610ad557600080fd5b506103dd610ae4366004613752565b6118d4565b348015610af557600080fd5b506103dd6101945481565b348015610b0c57600080fd5b506103dd611900565b348015610b2157600080fd5b50610507610b30366004613591565b611990565b348015610b4157600080fd5b50610507610b5036600461377c565b6119ec565b348015610b6157600080fd5b50610507610b703660046134ec565b611be0565b348015610b8157600080fd5b50610507610b90366004613591565b611c7d565b6101945461019154610192546040516370a0823160e01b81526001600160a01b0391821660048201526000939291909116906370a082319060240160206040518083038186803b158015610be857600080fd5b505afa158015610bfc573d6000803e3d6000fd5b505050506040513d601f19601f82011682018060405250810190610c2091906137d8565b610191546040516370a0823160e01b81523060048201526001600160a01b03909116906370a082319060240160206040518083038186803b158015610c6457600080fd5b505afa158015610c78573d6000803e3d6000fd5b505050506040513d601f19601f82011682018060405250810190610c9c91906137d8565b610ca69190613807565b610cb09190613807565b905090565b60006001600160e01b03198216637965db0b60e01b1480610ce657506301ffc9a760e01b6001600160e01b03198316145b92915050565b60606101308054610cfc9061381f565b80601f0160208091040260200160405190810160405280929190818152602001828054610d289061381f565b8015610d755780601f10610d4a57610100808354040283529160200191610d75565b820191906000526020600020905b815481529060010190602001808311610d5857829003601f168201915b5050505050905090565b6000610ce6826000611cd9565b600033610d9a818585611d14565b5060019392505050565b6000610ce6826001611e39565b6000610dbc81611e6a565b610dd4600080516020613ca383398151915283611877565b6040516001600160a01b03831681527f30155da94dd38cb12a2c44258fcc9c1bd57d566a1e7fc0efe2b5b35248bc155e906020015b60405180910390a15050565b600033610e23858285611e74565b610e2e858585611eee565b60019150505b9392505050565b6000610e4681611e6a565b610e4e610b95565b821015610e7657604051630f9e1c3b60e11b8152600481018390526024015b60405180910390fd5b5061019355565b600082815260656020526040902060010154610e9881611e6a565b610ea06120a6565b610eaa83836120ee565b505050565b60008061015f54610cb09190600160a01b900460ff1661385a565b6001600160a01b0381163314610f3a5760405162461bcd60e51b815260206004820152602f60248201527f416363657373436f6e74726f6c3a2063616e206f6e6c792072656e6f756e636560448201526e103937b632b9903337b91039b2b63360891b6064820152608401610e6d565b610f448282612174565b5050565b306001600160a01b037f0000000000000000000000000000000000000000000000000000000000000000161415610f915760405162461bcd60e51b8152600401610e6d9061387f565b7f00000000000000000000000000000000000000000000000000000000000000006001600160a01b0316610fda600080516020613cc3833981519152546001600160a01b031690565b6001600160a01b0316146110005760405162461bcd60e51b8152600401610e6d906138cb565b611009816121db565b60408051600080825260208201909252611025918391906121e6565b50565b600033610d9a81858561103b83836118d4565b6110459190613807565b611d14565b600061105581611e6a565b611025612360565b600061106881611e6a565b50610195805467ffffffffffffffff909216600160401b0267ffffffffffffffff60401b19909216919091179055565b60006110a2610b95565b61019354610ce69190613917565b306001600160a01b037f00000000000000000000000000000000000000000000000000000000000000001614156110f95760405162461bcd60e51b8152600401610e6d9061387f565b7f00000000000000000000000000000000000000000000000000000000000000006001600160a01b0316611142600080516020613cc3833981519152546001600160a01b031690565b6001600160a01b0316146111685760405162461bcd60e51b8152600401610e6d906138cb565b611171826121db565b610f44828260016121e6565b6000306001600160a01b037f0000000000000000000000000000000000000000000000000000000000000000161461121d5760405162461bcd60e51b815260206004820152603860248201527f555550535570677261646561626c653a206d757374206e6f742062652063616c60448201527f6c6564207468726f7567682064656c656761746563616c6c00000000000000006064820152608401610e6d565b50600080516020613cc383398151915290565b600080516020613ca383398151915261124881611e6a565b61019154611260906001600160a01b031684846123b2565b604080516001600160a01b038516815260208101849052815133927f4936709b148c27d3011da00f8fb902a0987fba6912647f087c11370323aa15f1928290030190a2505050565b60006112b381611e6a565b600261019254600160a01b900460ff1660028111156112d4576112d461354b565b14156112f357604051630e53517160e31b815260040160405180910390fd5b6112fb610b95565b1580159061130b575061012f5415155b1561132957604051632cd3d71b60e21b815260040160405180910390fd5b6101925460405133917f09d61a1c1b2830bd9f203cb39d446f65b7a3425d5266fce697cb53f22fcb251c9161136b91600160a01b900460ff169060029061392e565b60405180910390a250610192805460ff60a01b1916600160a11b179055565b6000600161019254600160a01b900460ff1660028111156113ad576113ad61354b565b146113cb57604051632b5b3f3760e11b815260040160405180910390fd5b6113d58383612415565b610191546101925461019554929350610ce6926001600160a01b0392831692909116906127109061141790600160401b900467ffffffffffffffff1688613949565b611421919061397e565b6123b2565b611431600082610e7d565b61143c600033611877565b7ff8ccb027dfcd135e000e9d45e6cc2d662578a8825d4c45b5e32e0adf67e79ec633604080516001600160a01b03928316815291841660208301520160405180910390a150565b600061148e81611e6a565b6114a6600080516020613ca383398151915283610e7d565b6040516001600160a01b03831681527fa9028df3980c073326e1b564c46c75ce97638bdf99a9fca496c04657bfa5e86590602001610e09565b60006114ea81611e6a565b611025612488565b60009182526065602090815260408084206001600160a01b0393909316845291905290205460ff1690565b6000600161019254600160a01b900460ff1660028111156115405761154061354b565b1461155e57604051632b5b3f3760e11b815260040160405180910390fd5b61156883836124c5565b610191546101925461019554929350610ce6926001600160a01b0392831692909116906127109061141790600160401b900467ffffffffffffffff1686613949565b60606101318054610cfc9061381f565b600033816115c882866118d4565b9050838110156116285760405162461bcd60e51b815260206004820152602560248201527f45524332303a2064656372656173656420616c6c6f77616e63652062656c6f77604482015264207a65726f60d81b6064820152608401610e6d565b6116358286868403611d14565b506001949350505050565b600061164b81611e6a565b600061019254600160a01b900460ff16600281111561166c5761166c61354b565b1461168a57604051630e53517160e31b815260040160405180910390fd5b610192805460ff60a01b1916600160a01b179055610195805467ffffffffffffffff19164267ffffffffffffffff1617905560405133907f09d61a1c1b2830bd9f203cb39d446f65b7a3425d5266fce697cb53f22fcb251c906116f29060009060019061392e565b60405180910390a250565b600033610d9a818585611eee565b6000610ce6600080516020613d0a833981519152836114f2565b6000610ce6826001611cd9565b6000600161019254600160a01b900460ff1660028111156117555761175561354b565b1461177357604051632b5b3f3760e11b815260040160405180910390fd5b61177e848484612538565b949350505050565b6000600161019254600160a01b900460ff1660028111156117a9576117a961354b565b146117c757604051632b5b3f3760e11b815260040160405180910390fd5b61177e8484846125ac565b6000610ce66117df610b95565b61019354610a019190613917565b6000610ce6826000611e39565b610191546040516370a0823160e01b81523060048201526000916001600160a01b0316906370a082319060240160206040518083038186803b15801561183f57600080fd5b505afa158015611853573d6000803e3d6000fd5b505050506040513d601f19601f82011682018060405250810190610ce691906137d8565b60008281526065602052604090206001015461189281611e6a565b61189a6120a6565b610eaa8383612174565b6000610ce6600080516020613ca3833981519152836114f2565b6000610ce66118cd60006117fa565b6000611e39565b6001600160a01b03918216600090815261012e6020908152604080832093909416825291909152205490565b60008061190b610eaf565b61191690600a613a76565b9050600061192382610d7f565b6101955490915060009062015180906119469067ffffffffffffffff1642613917565b611950919061397e565b905061195c8184613a85565b6119668484613b0a565b61197290612710613a85565b61197e9061016d613a85565b6119889190613b49565b935050505090565b600061199b81611e6a565b6119b3600080516020613d0a83398151915283611877565b6040516001600160a01b03831681527f6761283827cfeb45829a9e107e0ebc1edf14926d5b1ead80962c82041f2989af90602001610e09565b600054610100900460ff1615808015611a0c5750600054600160ff909116105b80611a265750303b158015611a26575060005460ff166001145b611a895760405162461bcd60e51b815260206004820152602e60248201527f496e697469616c697a61626c653a20636f6e747261637420697320616c72656160448201526d191e481a5b9a5d1a585b1a5e995960921b6064820152608401610e6d565b6000805460ff191660011790558015611aac576000805461ff0019166101001790555b611ab4612620565b611abc612620565b611ac4612647565b611acd85612676565b611b14604051806040016040528060098152602001681495d04815985d5b1d60ba1b81525060405180604001604052806004815260200163292ba0ab60e11b8152506126a6565b611b1f6000876120ee565b611b37600080516020613d0a833981519152846120ee565b61019180546001600160a01b038088166001600160a01b0319928316179092556101928054928716929091169190911790556101938290556101958054691d4c000000000000000067ffffffffffffffff60401b199091161790558015611bd8576000805461ff0019169055604051600181527f7f26b83ff96e1f2b6a682f133852f6798a09c465da95921460cefb38474024989060200160405180910390a15b505050505050565b600080516020613d0a833981519152611bf881611e6a565b600161019254600160a01b900460ff166002811115611c1957611c1961354b565b14611c3757604051632b5b3f3760e11b815260040160405180910390fd5b61019454604080519182526020820184905233917f8f728c0f194ab0f693e933718bb323adb729700f2377cdb74c3c9433c4e67c47910160405180910390a25061019455565b6000611c8881611e6a565b611ca0600080516020613d0a83398151915283610e7d565b6040516001600160a01b03831681527f376241ba2070b84726607dcf732a14c346afa1747390f3967beace29ac9a9b8b90602001610e09565b6000610e34611ce6610b95565b611cf1906001613807565b611cfd6000600a613a76565b61012f54611d0b9190613807565b859190856126d7565b6001600160a01b038316611d765760405162461bcd60e51b8152602060048201526024808201527f45524332303a20617070726f76652066726f6d20746865207a65726f206164646044820152637265737360e01b6064820152608401610e6d565b6001600160a01b038216611dd75760405162461bcd60e51b815260206004820152602260248201527f45524332303a20617070726f766520746f20746865207a65726f206164647265604482015261737360f01b6064820152608401610e6d565b6001600160a01b03838116600081815261012e602090815260408083209487168084529482529182902085905590518481527f8c5be1e5ebec7d5bd14f71427d1e84f3dd0314c0f7b2291e5b200ac8c7c3b925910160405180910390a3505050565b6000610e34611e4982600a613a76565b61012f54611e579190613807565b611e5f610b95565b611d0b906001613807565b6110258133612734565b6000611e8084846118d4565b90506000198114611ee85781811015611edb5760405162461bcd60e51b815260206004820152601d60248201527f45524332303a20696e73756666696369656e7420616c6c6f77616e63650000006044820152606401610e6d565b611ee88484848403611d14565b50505050565b6001600160a01b038316611f525760405162461bcd60e51b815260206004820152602560248201527f45524332303a207472616e736665722066726f6d20746865207a65726f206164604482015264647265737360d81b6064820152608401610e6d565b6001600160a01b038216611fb45760405162461bcd60e51b815260206004820152602360248201527f45524332303a207472616e7366657220746f20746865207a65726f206164647260448201526265737360e81b6064820152608401610e6d565b611fbf83838361278d565b6001600160a01b038316600090815261012d6020526040902054818110156120385760405162461bcd60e51b815260206004820152602660248201527f45524332303a207472616e7366657220616d6f756e7420657863656564732062604482015265616c616e636560d01b6064820152608401610e6d565b6001600160a01b03808516600081815261012d602052604080822086860390559286168082529083902080548601905591517fddf252ad1be2c89b69c2b068fc378daa952ba7f163c4a11628f55a4df523b3ef906120999086815260200190565b60405180910390a3611ee8565b60fb5460ff16156120ec5760405162461bcd60e51b815260206004820152601060248201526f14185d5cd8589b194e881c185d5cd95960821b6044820152606401610e6d565b565b6120f882826114f2565b610f445760008281526065602090815260408083206001600160a01b03851684529091529020805460ff191660011790556121303390565b6001600160a01b0316816001600160a01b0316837f2f8788117e7eff1d82e926ec794901d17c78024a50270940304540a733656f0d60405160405180910390a45050565b61217e82826114f2565b15610f445760008281526065602090815260408083206001600160a01b0385168085529252808320805460ff1916905551339285917ff6391f5c32d9c69d2a47ea670b442974b53935d1edc7fd64eb21e047a839171b9190a45050565b6000610f4481611e6a565b7f4910fdfa16fed3260ed0e7147f7cc6da11a60208b5b9406d12a635614ffd91435460ff161561221957610eaa83612795565b826001600160a01b03166352d1902d6040518163ffffffff1660e01b815260040160206040518083038186803b15801561225257600080fd5b505afa925050508015612282575060408051601f3d908101601f1916820190925261227f918101906137d8565b60015b6122e55760405162461bcd60e51b815260206004820152602e60248201527f45524331393637557067726164653a206e657720696d706c656d656e7461746960448201526d6f6e206973206e6f74205555505360901b6064820152608401610e6d565b600080516020613cc383398151915281146123545760405162461bcd60e51b815260206004820152602960248201527f45524331393637557067726164653a20756e737570706f727465642070726f786044820152681a58589b195555525160ba1b6064820152608401610e6d565b50610eaa838383612831565b612368612856565b60fb805460ff191690557f5db9ee0a495bf2e6ff9c91a7834c1ba4fdd244a5e8aa4e537bd38aeae4b073aa335b6040516001600160a01b03909116815260200160405180910390a1565b6040516001600160a01b038316602482015260448101829052610eaa90849063a9059cbb60e01b906064015b60408051601f198184030181529190526020810180516001600160e01b03166001600160e01b03199093169290921790915261289f565b600061242082611098565b83111561246f5760405162461bcd60e51b815260206004820152601e60248201527f455243343632363a206465706f736974206d6f7265207468616e206d617800006044820152606401610e6d565b600061247a846117ed565b9050610e3433848684612974565b6124906120a6565b60fb805460ff191660011790557f62e78cea01bee320cd4e420270b5ea74000d11b0c9f74754ebdbfc544b05a2586123953390565b60006124d0826117d2565b83111561251f5760405162461bcd60e51b815260206004820152601b60248201527f455243343632363a206d696e74206d6f7265207468616e206d617800000000006044820152606401610e6d565b600061252a84611725565b9050610e3433848387612974565b6000612543826117fa565b8411156125925760405162461bcd60e51b815260206004820152601f60248201527f455243343632363a207769746864726177206d6f7265207468616e206d6178006044820152606401610e6d565b600061259d85610da4565b905061177e33858588856129f3565b60006125b7826118be565b8411156126065760405162461bcd60e51b815260206004820152601d60248201527f455243343632363a2072656465656d206d6f7265207468616e206d61780000006044820152606401610e6d565b600061261185610d7f565b905061177e33858584896129f3565b600054610100900460ff166120ec5760405162461bcd60e51b8152600401610e6d90613b77565b600054610100900460ff1661266e5760405162461bcd60e51b8152600401610e6d90613b77565b6120ec612aa0565b600054610100900460ff1661269d5760405162461bcd60e51b8152600401610e6d90613b77565b61102581612ad3565b600054610100900460ff166126cd5760405162461bcd60e51b8152600401610e6d90613b77565b610f448282612b59565b6000806126e5868686612ba9565b905060018360028111156126fb576126fb61354b565b14801561271857506000848061271357612713613968565b868809115b1561272b57612728600182613807565b90505b95945050505050565b61273e82826114f2565b610f445761274b81612c94565b612756836020612ca6565b604051602001612767929190613bc2565b60408051601f198184030181529082905262461bcd60e51b8252610e6d916004016134b9565b610eaa6120a6565b6001600160a01b0381163b6128025760405162461bcd60e51b815260206004820152602d60248201527f455243313936373a206e657720696d706c656d656e746174696f6e206973206e60448201526c1bdd08184818dbdb9d1c9858dd609a1b6064820152608401610e6d565b600080516020613cc383398151915280546001600160a01b0319166001600160a01b0392909216919091179055565b61283a83612e42565b6000825111806128475750805b15610eaa57611ee88383612e82565b60fb5460ff166120ec5760405162461bcd60e51b815260206004820152601460248201527314185d5cd8589b194e881b9bdd081c185d5cd95960621b6044820152606401610e6d565b60006128f4826040518060400160405280602081526020017f5361666545524332303a206c6f772d6c6576656c2063616c6c206661696c6564815250856001600160a01b0316612ea79092919063ffffffff16565b90508051600014806129155750808060200190518101906129159190613c37565b610eaa5760405162461bcd60e51b815260206004820152602a60248201527f5361666545524332303a204552433230206f7065726174696f6e20646964206e6044820152691bdd081cdd58d8d9595960b21b6064820152608401610e6d565b61015f5461298d906001600160a01b0316853085612eb6565b6129978382612eee565b826001600160a01b0316846001600160a01b03167fdcbc1c05240f31ff3ad067ef1ee35ce4997762752e3a095284754544f4c709d784846040516129e5929190918252602082015260400190565b60405180910390a350505050565b826001600160a01b0316856001600160a01b031614612a1757612a17838683611e74565b612a218382612fbd565b61015f54612a39906001600160a01b031685846123b2565b826001600160a01b0316846001600160a01b0316866001600160a01b03167ffbde797d201c681b91056529119e0b02407c7bb96a4a2c75c01fc9667232c8db8585604051612a91929190918252602082015260400190565b60405180910390a45050505050565b600054610100900460ff16612ac75760405162461bcd60e51b8152600401610e6d90613b77565b60fb805460ff19169055565b600054610100900460ff16612afa5760405162461bcd60e51b8152600401610e6d90613b77565b600080612b0683613100565b9150915081612b16576012612b18565b805b61015f80546001600160a01b039095166001600160a01b031960ff93909316600160a01b02929092166001600160a81b031990951694909417179092555050565b600054610100900460ff16612b805760405162461bcd60e51b8152600401610e6d90613b77565b8151612b94906101309060208501906133ca565b508051610eaa906101319060208401906133ca565b600080806000198587098587029250828110838203039150508060001415612be457838281612bda57612bda613968565b0492505050610e34565b808411612c2b5760405162461bcd60e51b81526020600482015260156024820152744d6174683a206d756c446976206f766572666c6f7760581b6044820152606401610e6d565b60008486880960026001871981018816978890046003810283188082028403028082028403028082028403028082028403028082028403029081029092039091026000889003889004909101858311909403939093029303949094049190911702949350505050565b6060610ce66001600160a01b03831660145b60606000612cb5836002613949565b612cc0906002613807565b67ffffffffffffffff811115612cd857612cd861363e565b6040519080825280601f01601f191660200182016040528015612d02576020820181803683370190505b509050600360fc1b81600081518110612d1d57612d1d613c59565b60200101906001600160f81b031916908160001a905350600f60fb1b81600181518110612d4c57612d4c613c59565b60200101906001600160f81b031916908160001a9053506000612d70846002613949565b612d7b906001613807565b90505b6001811115612df3576f181899199a1a9b1b9c1cb0b131b232b360811b85600f1660108110612daf57612daf613c59565b1a60f81b828281518110612dc557612dc5613c59565b60200101906001600160f81b031916908160001a90535060049490941c93612dec81613c6f565b9050612d7e565b508315610e345760405162461bcd60e51b815260206004820181905260248201527f537472696e67733a20686578206c656e67746820696e73756666696369656e746044820152606401610e6d565b612e4b81612795565b6040516001600160a01b038216907fbc7cd75a20ee27fd9adebab32041f755214dbc6bffa90cc0225b39da2e5c2d3b90600090a250565b6060610e348383604051806060016040528060278152602001613ce3602791396131dc565b606061177e8484600085613254565b6040516001600160a01b0380851660248301528316604482015260648101829052611ee89085906323b872dd60e01b906084016123de565b6001600160a01b038216612f445760405162461bcd60e51b815260206004820152601f60248201527f45524332303a206d696e7420746f20746865207a65726f2061646472657373006044820152606401610e6d565b612f506000838361278d565b8061012f6000828254612f639190613807565b90915550506001600160a01b038216600081815261012d60209081526040808320805486019055518481527fddf252ad1be2c89b69c2b068fc378daa952ba7f163c4a11628f55a4df523b3ef910160405180910390a35050565b6001600160a01b03821661301d5760405162461bcd60e51b815260206004820152602160248201527f45524332303a206275726e2066726f6d20746865207a65726f206164647265736044820152607360f81b6064820152608401610e6d565b6130298260008361278d565b6001600160a01b038216600090815261012d60205260409020548181101561309e5760405162461bcd60e51b815260206004820152602260248201527f45524332303a206275726e20616d6f756e7420657863656564732062616c616e604482015261636560f01b6064820152608401610e6d565b6001600160a01b038316600081815261012d60209081526040808320868603905561012f80548790039055518581529192917fddf252ad1be2c89b69c2b068fc378daa952ba7f163c4a11628f55a4df523b3ef910160405180910390a3505050565b60408051600481526024810182526020810180516001600160e01b031663313ce56760e01b17905290516000918291829182916001600160a01b0387169161314791613c86565b600060405180830381855afa9150503d8060008114613182576040519150601f19603f3d011682016040523d82523d6000602084013e613187565b606091505b509150915081801561319b57506020815110155b156131cf576000818060200190518101906131b691906137d8565b905060ff81116131cd576001969095509350505050565b505b5060009485945092505050565b6060600080856001600160a01b0316856040516131f99190613c86565b600060405180830381855af49150503d8060008114613234576040519150601f19603f3d011682016040523d82523d6000602084013e613239565b606091505b509150915061324a8683838761332f565b9695505050505050565b6060824710156132b55760405162461bcd60e51b815260206004820152602660248201527f416464726573733a20696e73756666696369656e742062616c616e636520666f6044820152651c8818d85b1b60d21b6064820152608401610e6d565b600080866001600160a01b031685876040516132d19190613c86565b60006040518083038185875af1925050503d806000811461330e576040519150601f19603f3d011682016040523d82523d6000602084013e613313565b606091505b50915091506133248783838761332f565b979650505050505050565b6060831561339b578251613394576001600160a01b0385163b6133945760405162461bcd60e51b815260206004820152601d60248201527f416464726573733a2063616c6c20746f206e6f6e2d636f6e74726163740000006044820152606401610e6d565b508161177e565b61177e83838151156133b05781518083602001fd5b8060405162461bcd60e51b8152600401610e6d91906134b9565b8280546133d69061381f565b90600052602060002090601f0160209004810192826133f8576000855561343e565b82601f1061341157805160ff191683800117855561343e565b8280016001018555821561343e579182015b8281111561343e578251825591602001919060010190613423565b5061344a92915061344e565b5090565b5b8082111561344a576000815560010161344f565b60006020828403121561347557600080fd5b81356001600160e01b031981168114610e3457600080fd5b60005b838110156134a8578181015183820152602001613490565b83811115611ee85750506000910152565b60208152600082518060208401526134d881604085016020870161348d565b601f01601f19169190910160400192915050565b6000602082840312156134fe57600080fd5b5035919050565b80356001600160a01b038116811461351c57600080fd5b919050565b6000806040838503121561353457600080fd5b61353d83613505565b946020939093013593505050565b634e487b7160e01b600052602160045260246000fd5b6003811061357f57634e487b7160e01b600052602160045260246000fd5b9052565b60208101610ce68284613561565b6000602082840312156135a357600080fd5b610e3482613505565b6000806000606084860312156135c157600080fd5b6135ca84613505565b92506135d860208501613505565b9150604084013590509250925092565b600080604083850312156135fb57600080fd5b8235915061360b60208401613505565b90509250929050565b60006020828403121561362657600080fd5b813567ffffffffffffffff81168114610e3457600080fd5b634e487b7160e01b600052604160045260246000fd5b6000806040838503121561366757600080fd5b61367083613505565b9150602083013567ffffffffffffffff8082111561368d57600080fd5b818501915085601f8301126136a157600080fd5b8135818111156136b3576136b361363e565b604051601f8201601f19908116603f011681019083821181831017156136db576136db61363e565b816040528281528860208487010111156136f457600080fd5b8260208601602083013760006020848301015280955050505050509250929050565b60008060006060848603121561372b57600080fd5b8335925061373b60208501613505565b915061374960408501613505565b90509250925092565b6000806040838503121561376557600080fd5b61376e83613505565b915061360b60208401613505565b600080600080600060a0868803121561379457600080fd5b61379d86613505565b94506137ab60208701613505565b93506137b960408701613505565b92506137c760608701613505565b949793965091946080013592915050565b6000602082840312156137ea57600080fd5b5051919050565b634e487b7160e01b600052601160045260246000fd5b6000821982111561381a5761381a6137f1565b500190565b600181811c9082168061383357607f821691505b6020821081141561385457634e487b7160e01b600052602260045260246000fd5b50919050565b600060ff821660ff84168060ff03821115613877576138776137f1565b019392505050565b6020808252602c908201527f46756e6374696f6e206d7573742062652063616c6c6564207468726f7567682060408201526b19195b1959d85d1958d85b1b60a21b606082015260800190565b6020808252602c908201527f46756e6374696f6e206d7573742062652063616c6c6564207468726f7567682060408201526b6163746976652070726f787960a01b606082015260800190565b600082821015613929576139296137f1565b500390565b6040810161393c8285613561565b610e346020830184613561565b6000816000190483118215151615613963576139636137f1565b500290565b634e487b7160e01b600052601260045260246000fd5b60008261398d5761398d613968565b500490565b600181815b808511156139cd5781600019048211156139b3576139b36137f1565b808516156139c057918102915b93841c9390800290613997565b509250929050565b6000826139e457506001610ce6565b816139f157506000610ce6565b8160018114613a075760028114613a1157613a2d565b6001915050610ce6565b60ff841115613a2257613a226137f1565b50506001821b610ce6565b5060208310610133831016604e8410600b8410161715613a50575081810a610ce6565b613a5a8383613992565b8060001904821115613a6e57613a6e6137f1565b029392505050565b6000610e3460ff8416836139d5565b60006001600160ff1b0381841382841380821686840486111615613aab57613aab6137f1565b600160ff1b6000871282811687830589121615613aca57613aca6137f1565b60008712925087820587128484161615613ae657613ae66137f1565b87850587128184161615613afc57613afc6137f1565b505050929093029392505050565b60008083128015600160ff1b850184121615613b2857613b286137f1565b6001600160ff1b0384018313811615613b4357613b436137f1565b50500390565b600082613b5857613b58613968565b600160ff1b821460001984141615613b7257613b726137f1565b500590565b6020808252602b908201527f496e697469616c697a61626c653a20636f6e7472616374206973206e6f74206960408201526a6e697469616c697a696e6760a81b606082015260800190565b7f416363657373436f6e74726f6c3a206163636f756e7420000000000000000000815260008351613bfa81601785016020880161348d565b7001034b99036b4b9b9b4b733903937b6329607d1b6017918401918201528351613c2b81602884016020880161348d565b01602801949350505050565b600060208284031215613c4957600080fd5b81518015158114610e3457600080fd5b634e487b7160e01b600052603260045260246000fd5b600081613c7e57613c7e6137f1565b506000190190565b60008251613c9881846020870161348d565b919091019291505056fe8ae03f07fc9cf27c75d6dbd1eac0cff7db09848cc5b0c995d1a3d7ede864994f360894a13ba1a3210667c828492db98dca3e2076cc3735a920a3ca505d382bbc416464726573733a206c6f772d6c6576656c2064656c65676174652063616c6c206661696c6564323baab94aa45aaa3cc044271188889aad21b45e0260589722dc9ff769b4b1d8a2646970667358221220efb6ce845c81c110427dc0db363b660853b7489dab2bdf6eaadf4878f1cb329264736f6c63430008090033",
  "devdoc": {
    "kind": "dev",
    "methods": {
      "allowance(address,address)": {
        "details": "See {IERC20-allowance}."
      },
      "approve(address,uint256)": {
        "details": "See {IERC20-approve}. NOTE: If `amount` is the maximum `uint256`, the allowance is not updated on `transferFrom`. This is semantically equivalent to an infinite approval. Requirements: - `spender` cannot be the zero address."
      },
      "asset()": {
        "details": "See {IERC4626-asset}. "
      },
      "balanceOf(address)": {
        "details": "See {IERC20-balanceOf}."
      },
      "constructor": {
        "custom:oz-upgrades-unsafe-allow": "constructor"
      },
      "convertToAssets(uint256)": {
        "details": "See {IERC4626-convertToAssets}. "
      },
      "convertToShares(uint256)": {
        "details": "See {IERC4626-convertToShares}. "
      },
      "decimals()": {
        "details": "Decimals are computed by adding the decimal offset on top of the underlying asset's decimals. This \"original\" value is cached during construction of the vault contract. If this read operation fails (e.g., the asset has not been created yet), a default of 18 is used to represent the underlying asset's decimals. See {IERC20Metadata-decimals}."
      },
      "decreaseAllowance(address,uint256)": {
        "details": "Atomically decreases the allowance granted to `spender` by the caller. This is an alternative to {approve} that can be used as a mitigation for problems described in {IERC20-approve}. Emits an {Approval} event indicating the updated allowance. Requirements: - `spender` cannot be the zero address. - `spender` must have allowance for the caller of at least `subtractedValue`."
      },
      "deposit(uint256,address)": {
        "params": {
          "assets": "amount of pool token to be deposited into vault ",
          "receiver": "address of receiver"
        }
      },
      "getRoleAdmin(bytes32)": {
        "details": "Returns the admin role that controls `role`. See {grantRole} and {revokeRole}. To change a role's admin, use {_setRoleAdmin}."
      },
      "grant(address,uint256)": {
        "params": {
          "_amount": "amount of pool tokens to grant as a loan",
          "_to": "address of borrower"
        }
      },
      "hasRole(bytes32,address)": {
        "details": "Returns `true` if `account` has been granted `role`."
      },
      "increaseAllowance(address,uint256)": {
        "details": "Atomically increases the allowance granted to `spender` by the caller. This is an alternative to {approve} that can be used as a mitigation for problems described in {IERC20-approve}. Emits an {Approval} event indicating the updated allowance. Requirements: - `spender` cannot be the zero address."
      },
      "initialize(address,address,address,address,uint256)": {
        "params": {
          "_oracleManager": "address of oracle manager that is responsible                        for update real time value of underlying RWAs",
          "_poolManager": "address of pool manager",
          "_poolSize": "maximum amount pool can manage",
          "_poolToken": "address of the underlying token used for the vault for accounting",
          "_treasury": "address of treasury that is responsible for deploying pool tokens into RWAs"
        }
      },
      "isGrantManager(address)": {
        "params": {
          "_account": "address to query for role"
        }
      },
      "isOracleManager(address)": {
        "params": {
          "_account": "address to query for role"
        }
      },
      "mint(uint256,address)": {
        "params": {
          "receiver": "address of receiver",
          "shares": "amount of rwa vault shares to be minted from vault "
        }
      },
      "name()": {
        "details": "Returns the name of the token."
      },
      "paused()": {
        "details": "Returns true if the contract is paused, and false otherwise."
      },
      "previewDeposit(uint256)": {
        "details": "See {IERC4626-previewDeposit}. "
      },
      "previewMint(uint256)": {
        "details": "See {IERC4626-previewMint}. "
      },
      "previewRedeem(uint256)": {
        "details": "See {IERC4626-previewRedeem}. "
      },
      "previewWithdraw(uint256)": {
        "details": "See {IERC4626-previewWithdraw}. "
      },
      "proxiableUUID()": {
        "details": "Implementation of the ERC1822 {proxiableUUID} function. This returns the storage slot used by the implementation. It is used to validate the implementation's compatibility when performing an upgrade. IMPORTANT: A proxy pointing at a proxiable contract should not be considered proxiable itself, because this risks bricking a proxy that upgrades to it, by delegating to itself until out of gas. Thus it is critical that this function revert if invoked through a proxy. This is guaranteed by the `notDelegated` modifier."
      },
      "redeem(uint256,address,address)": {
        "params": {
          "owner": "address of owner",
          "receiver": "address of receiver",
          "shares": "amount of shares to be redeemed from vault "
        }
      },
      "renounceRole(bytes32,address)": {
        "details": "Revokes `role` from the calling account. Roles are often managed via {grantRole} and {revokeRole}: this function's purpose is to provide a mechanism for accounts to lose their privileges if they are compromised (such as when a trusted device is misplaced). If the calling account had been revoked `role`, emits a {RoleRevoked} event. Requirements: - the caller must be `account`. May emit a {RoleRevoked} event."
      },
      "supportsInterface(bytes4)": {
        "details": "See {IERC165-supportsInterface}."
      },
      "symbol()": {
        "details": "Returns the symbol of the token, usually a shorter version of the name."
      },
      "totalSupply()": {
        "details": "See {IERC20-totalSupply}."
      },
      "transfer(address,uint256)": {
        "details": "See {IERC20-transfer}. Requirements: - `to` cannot be the zero address. - the caller must have a balance of at least `amount`."
      },
      "transferFrom(address,address,uint256)": {
        "details": "See {IERC20-transferFrom}. Emits an {Approval} event indicating the updated allowance. This is not required by the EIP. See the note at the beginning of {ERC20}. NOTE: Does not update the allowance if the current allowance is the maximum `uint256`. Requirements: - `from` and `to` cannot be the zero address. - `from` must have a balance of at least `amount`. - the caller must have allowance for ``from``'s tokens of at least `amount`."
      },
      "updateAssetUnderManagement(uint256)": {
        "details": "oracle should calculate AUM on regular interval and record on-chain",
        "params": {
          "_assetUnderManagement": "total value of underlying RWAs in terms of pool token "
        }
      },
      "updateNonReservePercentage(uint64)": {
        "params": {
          "_percentage": "new percentage in 2 basis point (ex: for 10.30% => 1003) "
        }
      },
      "updatePoolSize(uint256)": {
        "params": {
          "_poolSize": "new value to update"
        }
      },
      "upgradeTo(address)": {
        "custom:oz-upgrades-unsafe-allow-reachable": "delegatecall",
        "details": "Upgrade the implementation of the proxy to `newImplementation`. Calls {_authorizeUpgrade}. Emits an {Upgraded} event."
      },
      "upgradeToAndCall(address,bytes)": {
        "custom:oz-upgrades-unsafe-allow-reachable": "delegatecall",
        "details": "Upgrade the implementation of the proxy to `newImplementation`, and subsequently execute the function call encoded in `data`. Calls {_authorizeUpgrade}. Emits an {Upgraded} event."
      },
      "withdraw(uint256,address,address)": {
        "params": {
          "assets": "amount of pool token to be withdrawn from vault ",
          "owner": "address of owner",
          "receiver": "address of receiver"
        }
      }
    },
    "title": "RWA Vault",
    "version": 1
  },
  "userdoc": {
    "kind": "user",
    "methods": {
      "activatePool()": {
        "notice": "activates the pool for deposit, withdraw"
      },
      "addGrantManager(address)": {
        "notice": "adds new grant manager"
      },
      "addOracleManager(address)": {
        "notice": "adds new oracle manager"
      },
      "closePool()": {
        "notice": "closes the pool after full settlement"
      },
      "deposit(uint256,address)": {
        "notice": "deposits assets of underlying tokens into the vault and grants ownership of shares to receiver"
      },
      "grant(address,uint256)": {
        "notice": "grants tokens to borrower"
      },
      "grantRole(bytes32,address)": {
        "notice": "grants a role to account"
      },
      "initialize(address,address,address,address,uint256)": {
        "notice": "Initializes the contract"
      },
      "isGrantManager(address)": {
        "notice": "returns true if given address has grant manager role"
      },
      "isOracleManager(address)": {
        "notice": "returns true if given address has oracle manager role"
      },
      "maxDeposit(address)": {
        "notice": "returns the maximum amount of underlying assets that can be deposited"
      },
      "maxMint(address)": {
        "notice": "returns the maximum amount of shares that can be minted"
      },
      "maxRedeem(address)": {
        "notice": "returns the maximum amount of shares that can be redeemed"
      },
      "maxWithdraw(address)": {
        "notice": "returns the maximum amount of underlying assets that can be withdrawn"
      },
      "mint(uint256,address)": {
        "notice": "mints exactly shares vault shares to receiver by depositing assets of underlying tokens"
      },
      "pause()": {
        "notice": "pauses the contract"
      },
      "redeem(uint256,address,address)": {
        "notice": "redeems a specific number of shares from owner and sends assets of underlying token from the vault to receiver"
      },
      "removeGrantManager(address)": {
        "notice": "removes existing grant manager"
      },
      "removeOracleManager(address)": {
        "notice": "removes existing oracle manager"
      },
      "suppliedAPY()": {
        "notice": "returns real time supplied APY of the vault "
      },
      "totalAssets()": {
        "notice": "returns the total amount of underlying assets held by the vault"
      },
      "transferAdmin(address)": {
        "notice": "transfer admin role to new account"
      },
      "unpause()": {
        "notice": "unpauses the contract"
      },
      "updateAssetUnderManagement(uint256)": {
        "notice": "updates asset under management i.e. total value of underlying RWAs in terms of pool token"
      },
      "updateNonReservePercentage(uint64)": {
        "notice": "updates percentage of amount that deducted from each depoist and sent to treasury"
      },
      "updatePoolSize(uint256)": {
        "notice": "Updates pool size"
      },
      "withdraw(uint256,address,address)": {
        "notice": "burns shares from owner and send exactly assets token from the vault to receiver"
      }
    },
    "notice": "RWA Vault is tokenized vault built using ERC-4626 standard",
    "version": 1
  },
  "storageLayout": {
    "storage": [
      {
        "astId": 948,
        "contract": "contracts/protocol/RWAVault.sol:RWAVault",
        "label": "_initialized",
        "offset": 0,
        "slot": "0",
        "type": "t_uint8"
      },
      {
        "astId": 951,
        "contract": "contracts/protocol/RWAVault.sol:RWAVault",
        "label": "_initializing",
        "offset": 1,
        "slot": "0",
        "type": "t_bool"
      },
      {
        "astId": 3521,
        "contract": "contracts/protocol/RWAVault.sol:RWAVault",
        "label": "__gap",
        "offset": 0,
        "slot": "1",
        "type": "t_array(t_uint256)50_storage"
      },
      {
        "astId": 3904,
        "contract": "contracts/protocol/RWAVault.sol:RWAVault",
        "label": "__gap",
        "offset": 0,
        "slot": "51",
        "type": "t_array(t_uint256)50_storage"
      },
      {
        "astId": 39,
        "contract": "contracts/protocol/RWAVault.sol:RWAVault",
        "label": "_roles",
        "offset": 0,
        "slot": "101",
        "type": "t_mapping(t_bytes32,t_struct(RoleData)34_storage)"
      },
      {
        "astId": 334,
        "contract": "contracts/protocol/RWAVault.sol:RWAVault",
        "label": "__gap",
        "offset": 0,
        "slot": "102",
        "type": "t_array(t_uint256)49_storage"
      },
      {
        "astId": 930,
        "contract": "contracts/protocol/RWAVault.sol:RWAVault",
        "label": "__gap",
        "offset": 0,
        "slot": "151",
        "type": "t_array(t_uint256)50_storage"
      },
      {
        "astId": 1245,
        "contract": "contracts/protocol/RWAVault.sol:RWAVault",
        "label": "__gap",
        "offset": 0,
        "slot": "201",
        "type": "t_array(t_uint256)50_storage"
      },
      {
        "astId": 1267,
        "contract": "contracts/protocol/RWAVault.sol:RWAVault",
        "label": "_paused",
        "offset": 0,
        "slot": "251",
        "type": "t_bool"
      },
      {
        "astId": 1372,
        "contract": "contracts/protocol/RWAVault.sol:RWAVault",
        "label": "__gap",
        "offset": 0,
        "slot": "252",
        "type": "t_array(t_uint256)49_storage"
      },
      {
        "astId": 1392,
        "contract": "contracts/protocol/RWAVault.sol:RWAVault",
        "label": "_balances",
        "offset": 0,
        "slot": "301",
        "type": "t_mapping(t_address,t_uint256)"
      },
      {
        "astId": 1398,
        "contract": "contracts/protocol/RWAVault.sol:RWAVault",
        "label": "_allowances",
        "offset": 0,
        "slot": "302",
        "type": "t_mapping(t_address,t_mapping(t_address,t_uint256))"
      },
      {
        "astId": 1400,
        "contract": "contracts/protocol/RWAVault.sol:RWAVault",
        "label": "_totalSupply",
        "offset": 0,
        "slot": "303",
        "type": "t_uint256"
      },
      {
        "astId": 1402,
        "contract": "contracts/protocol/RWAVault.sol:RWAVault",
        "label": "_name",
        "offset": 0,
        "slot": "304",
        "type": "t_string_storage"
      },
      {
        "astId": 1404,
        "contract": "contracts/protocol/RWAVault.sol:RWAVault",
        "label": "_symbol",
        "offset": 0,
        "slot": "305",
        "type": "t_string_storage"
      },
      {
        "astId": 1984,
        "contract": "contracts/protocol/RWAVault.sol:RWAVault",
        "label": "__gap",
        "offset": 0,
        "slot": "306",
        "type": "t_array(t_uint256)45_storage"
      },
      {
        "astId": 2083,
        "contract": "contracts/protocol/RWAVault.sol:RWAVault",
        "label": "_asset",
        "offset": 0,
        "slot": "351",
        "type": "t_contract(IERC20Upgradeable)2063"
      },
      {
        "astId": 2085,
        "contract": "contracts/protocol/RWAVault.sol:RWAVault",
        "label": "_underlyingDecimals",
        "offset": 20,
        "slot": "351",
        "type": "t_uint8"
      },
      {
        "astId": 2712,
        "contract": "contracts/protocol/RWAVault.sol:RWAVault",
        "label": "__gap",
        "offset": 0,
        "slot": "352",
        "type": "t_array(t_uint256)49_storage"
      },
      {
        "astId": 6045,
        "contract": "contracts/protocol/RWAVault.sol:RWAVault",
        "label": "poolToken",
        "offset": 0,
        "slot": "401",
        "type": "t_address"
      },
      {
        "astId": 6047,
        "contract": "contracts/protocol/RWAVault.sol:RWAVault",
        "label": "treasury",
        "offset": 0,
        "slot": "402",
        "type": "t_address"
      },
      {
        "astId": 6050,
        "contract": "contracts/protocol/RWAVault.sol:RWAVault",
        "label": "status",
        "offset": 20,
        "slot": "402",
        "type": "t_enum(PoolStatus)6062"
      },
      {
        "astId": 6052,
        "contract": "contracts/protocol/RWAVault.sol:RWAVault",
        "label": "poolSize",
        "offset": 0,
        "slot": "403",
        "type": "t_uint256"
      },
      {
        "astId": 6054,
        "contract": "contracts/protocol/RWAVault.sol:RWAVault",
        "label": "assetUnderManagement",
        "offset": 0,
        "slot": "404",
        "type": "t_uint256"
      },
      {
        "astId": 6056,
        "contract": "contracts/protocol/RWAVault.sol:RWAVault",
        "label": "activationTime",
        "offset": 0,
        "slot": "405",
        "type": "t_uint64"
      },
      {
        "astId": 6058,
        "contract": "contracts/protocol/RWAVault.sol:RWAVault",
        "label": "nonReservePercentage",
        "offset": 8,
        "slot": "405",
        "type": "t_uint64"
      }
    ],
    "types": {
      "t_address": {
        "encoding": "inplace",
        "label": "address",
        "numberOfBytes": "20"
      },
      "t_array(t_uint256)45_storage": {
        "base": "t_uint256",
        "encoding": "inplace",
        "label": "uint256[45]",
        "numberOfBytes": "1440"
      },
      "t_array(t_uint256)49_storage": {
        "base": "t_uint256",
        "encoding": "inplace",
        "label": "uint256[49]",
        "numberOfBytes": "1568"
      },
      "t_array(t_uint256)50_storage": {
        "base": "t_uint256",
        "encoding": "inplace",
        "label": "uint256[50]",
        "numberOfBytes": "1600"
      },
      "t_bool": {
        "encoding": "inplace",
        "label": "bool",
        "numberOfBytes": "1"
      },
      "t_bytes32": {
        "encoding": "inplace",
        "label": "bytes32",
        "numberOfBytes": "32"
      },
      "t_contract(IERC20Upgradeable)2063": {
        "encoding": "inplace",
        "label": "contract IERC20Upgradeable",
        "numberOfBytes": "20"
      },
      "t_enum(PoolStatus)6062": {
        "encoding": "inplace",
        "label": "enum RWAVault.PoolStatus",
        "numberOfBytes": "1"
      },
      "t_mapping(t_address,t_bool)": {
        "encoding": "mapping",
        "key": "t_address",
        "label": "mapping(address => bool)",
        "numberOfBytes": "32",
        "value": "t_bool"
      },
      "t_mapping(t_address,t_mapping(t_address,t_uint256))": {
        "encoding": "mapping",
        "key": "t_address",
        "label": "mapping(address => mapping(address => uint256))",
        "numberOfBytes": "32",
        "value": "t_mapping(t_address,t_uint256)"
      },
      "t_mapping(t_address,t_uint256)": {
        "encoding": "mapping",
        "key": "t_address",
        "label": "mapping(address => uint256)",
        "numberOfBytes": "32",
        "value": "t_uint256"
      },
      "t_mapping(t_bytes32,t_struct(RoleData)34_storage)": {
        "encoding": "mapping",
        "key": "t_bytes32",
        "label": "mapping(bytes32 => struct AccessControlUpgradeable.RoleData)",
        "numberOfBytes": "32",
        "value": "t_struct(RoleData)34_storage"
      },
      "t_string_storage": {
        "encoding": "bytes",
        "label": "string",
        "numberOfBytes": "32"
      },
      "t_struct(RoleData)34_storage": {
        "encoding": "inplace",
        "label": "struct AccessControlUpgradeable.RoleData",
        "members": [
          {
            "astId": 31,
            "contract": "contracts/protocol/RWAVault.sol:RWAVault",
            "label": "members",
            "offset": 0,
            "slot": "0",
            "type": "t_mapping(t_address,t_bool)"
          },
          {
            "astId": 33,
            "contract": "contracts/protocol/RWAVault.sol:RWAVault",
            "label": "adminRole",
            "offset": 0,
            "slot": "1",
            "type": "t_bytes32"
          }
        ],
        "numberOfBytes": "64"
      },
      "t_uint256": {
        "encoding": "inplace",
        "label": "uint256",
        "numberOfBytes": "32"
      },
      "t_uint64": {
        "encoding": "inplace",
        "label": "uint64",
        "numberOfBytes": "8"
      },
      "t_uint8": {
        "encoding": "inplace",
        "label": "uint8",
        "numberOfBytes": "1"
      }
    }
  }
}